:020000040800F2
:1000000088040020753000089D2F00089F2F0008ED
:10001000A32F0008A72F0008AB2F00080000000046
:10002000000000000000000000000000AF2F0008EA
:10003000B12F000800000000B32F0008B52F000802
:100040008F3000088F3000088F3000088F30000894
:100050008F3000088F3000088F3000088F30000884
:100060008F3000088F3000088F3000088F30000874
:100070008F3000088F3000088F3000088F30000864
:100080008F3000088F300008B72F00088F3000082D
:100090008F3000088F3000088F3000088F30000844
:1000A0008F3000088F3000088F3000088F30000834
:1000B0008F3000088F300008153000088F3000089E
:1000C0008F3000088F3000088F3000088F30000814
:1000D0008F300008B92F0008C72F00088F300008A4
:1000E0008F3000088F3000088F300008DFF80CD008
:1000F00002F0E8FF0048004751290008880400206A
:100100000CB50020019000906C48006840F48030ED
:100110006A49086000BF6948006800F40030009038
:100120000198401C0190009818B90198B0F5A06F93
:10013000F1D16248006800F4003010B10120009055
:1001400001E0002000900098012843D15C4800683D
:1001500040F010005A4908600846006820F003008B
:1001600008600846006840F0020008605348406894
:10017000524948600846406848600846406840F474
:10018000806048600846406820F47C10486008465B
:10019000406840F4E81048600846006840F080700D
:1001A000086000BF4548006800F000700028F9D0E2
:1001B0004248406820F003004049486008464068D3
:1001C00040F00200486000BF3C48406800F00C006E
:1001D0000828F9D10CBD10B5FFF792FF10BD10B57E
:1001E0003648006840F0010034490860084640681D
:1001F000344908403149486008460068324908409F
:100200002E4908600846006820F4802008600846EF
:10021000406820F4FE0048604FF41F008860FFF73C
:10022000DAFF4FF000602949086010BD10B50021C9
:1002300000200022214B5B6803F00C0121B104294E
:1002400006D0082928D107E0214B224C236027E063
:100250001F4B204C236023E0184B5B6803F47010A5
:10026000164B5B6803F48032022303EB904022B903
:10027000194B4343174C23600DE0104B5B6803F4AC
:10028000003323B1144B4343124C236003E0104B63
:100290004343104C236003E00D4B0E4C236000BF22
:1002A00000BF064B5B68C3F303130C4CE15C094BC6
:1002B0001B68CB40074C236010BD000000100240BB
:1002C000002002400000FFF8FFFFF6FE08ED00E00E
:1002D00000127A000000002000093D000400002008
:1002E00031490143314A1160704770B50021002344
:1002F0000F22C47804B32D4C246804F4E064C4F5E0
:10030000E064210AC1F10403CA40447804FA03F10D
:100310008478144021430901254C0678A1550478BE
:1003200004F01F050124AC4005786D11AD0005F106
:10033000E025C5F8004109E0047804F01F05012418
:10034000AC401C4D0678761145F8264070BD1A4A1F
:100350000A400243154B1B1F1A60704739B1134AFC
:10036000121D12680243114B1B1D1A6006E00F4A52
:10037000121D126882430D4B1B1D1A607047042822
:1003800008D14FF0E021096941F004014FF0E0226B
:10039000116107E04FF0E021096921F004014FF0FD
:1003A000E0221161704700000000FA050CED00E04A
:1003B00000E400E080E100E080FFFF1F10B504468C
:1003C000CC48844208D10121042000F02DFB0021FB
:1003D000042000F029FB46E0C748844208D10121EF
:1003E000082000F021FB0021082000F01DFB3AE06E
:1003F000C248844208D10121102000F015FB0021E1
:10040000102000F011FB2EE0BD48844208D10121EC
:10041000202000F009FB0021202000F005FB22E055
:10042000B848844208D10121402000F0FDFA0021A3
:10043000402000F0F9FA16E0B348844208D10121C7
:10044000802000F0F1FA0021802000F0EDFA0AE0AF
:10045000AE48844207D10121801500F0E5FA002161
:10046000A01500F0E1FA10BD10B50121084600F01A
:10047000DBFA0021012000F0D7FA10BD2DE9F04190
:10048000024600250026002000230024002791F8C2
:1004900003C00CF00F0591F803C00CF0100CBCF178
:1004A000000F03D091F802C04CEA050591F800C096
:1004B000BCF1000F31D0146800202BE04FF0010C8C
:1004C0000CFA00F3B1F800C00CEA03069E4220D1FA
:1004D00083004FF00F0C0CFA03F7BC4305FA03FC42
:1004E0004CEA040491F803C0BCF1280F06D14FF088
:1004F000010C0CFA00FCC2F814C00AE091F803C029
:10050000BCF1480F05D14FF0010C0CFA00FCC2F809
:1005100010C0401C0828D1D31460B1F800C0BCF151
:10052000FF0F34DD546800202EE000F1080C4FF07E
:10053000010808FA0CF3B1F800C00CEA03069E4269
:1005400021D183004FF00F0C0CFA03F7BC4305FADE
:1005500003FC4CEA040491F803C0BCF1280F05D158
:1005600000F1080C08FA0CF8C2F8148091F803C0E6
:10057000BCF1480F07D100F1080C4FF0010808FA50
:100580000CF8C2F81080401C0828CED35460BDE897
:10059000F0814FF6FF710180022181700421C1704A
:1005A00070470246002093680B400BB1012000E029
:1005B000002070470146886880B2704702460020DC
:1005C000D3680B400BB1012000E0002070470146CA
:1005D000C86880B2704701617047416170470AB1D5
:1005E000016100E041617047C16070474FF48032A3
:1005F0000A43826181618261826982697047024631
:100600000020434B18684FF68073184040EA0210F0
:1006100008433F4B186070473E49C8617047F0B5CA
:100620000A46002300240021002500F00046B6F110
:10063000004F02D1364EF16901E0354E7168C0F3CA
:10064000034583B200F44016B6F5401F08D121F0EF
:1006500070612F4E766826F070662D4F7E6012E036
:1006600000F48016B6F5801F06D1032606FA05F4BD
:10067000A14341F0706106E0460D360103FA06F62B
:10068000B14341F0706122B1460D360103FA06F61E
:10069000314300F00046B6F1004F02D11C4EF1612B
:1006A00001E01B4E7160F0BD30B500228B071C0FBE
:1006B0000F2303FA04F2164B08338C1053F824303E
:1006C0009343134C08348D1044F8253023468C1086
:1006D00053F824308C07240F00FA04F423430C4C05
:1006E00008348D1044F8253030BD0A49DC310860EB
:1006F0007047000000080140000C0140001001405C
:100700000014014000180140001C0140002001407D
:100710000000014000002042DF48006840F0010076
:10072000DD49086008464068DC490840DA4948600D
:1007300008460068DA490840D7490860084600685A
:1007400020F4802008600846406820F4FE004860DD
:100750004FF41F0088607047CF49096821F4803149
:10076000CD4A11601146096821F480211160B0F56D
:10077000803F03D0B0F5802F0ED106E0C64909684E
:1007800041F48031C44A116007E0C349096841F46B
:10079000A021C14A116000E000BF00BF704710B542
:1007A00001460022002300204A11012A02D1BA4C3E
:1007B000236806E0022A02D1B74C236A01E0B64C56
:1007C000636A01F01F02012494401C400CB1012017
:1007D00000E0002010BD38B5002000900024002566
:1007E00000BF3120FFF7DBFF05460098401C00905A
:1007F0000098B0F5A06F01D0002DF2D03120FFF7A6
:10080000CEFF08B1012400E00024204638BD014697
:100810000020A14A106820F0F80040EAC1001060F2
:100820007047A04908607047024600209A4B5868FC
:1008300020F47C1042EA01031843974B586070473C
:1008400098490866704701460020934A506820F096
:1008500003000843506070478F48406800F00C0068
:100860007047014600208C4A506820F0F000084391
:100870005060704701460020874A506820F4E060CD
:1008800008435060704701460020834A506820F4B6
:10089000605040EAC1005060704729B17E4A527AE8
:1008A00002437D4B5A7204E07B4A527A82437A4B70
:1008B0005A7270477B49D831086070470146002062
:1008C000754A506820F4404008435060704700214A
:1008D000714A20321170704A82F82010012802D02B
:1008E00004280AD104E001216B4A2032117005E08E
:1008F0000521694A2032117000E000BF00BF704737
:100900006949086070476449096A0143624A116293
:100910007047654944390860704730B500210022AE
:10092000002400235C4D6D6805F00C0121B1042901
:1009300005D0082923D105E05C4D056022E05B4D20
:1009400005601FE0544D6D6805F47012524D6D68DE
:1009500005F48034022505EB92421CB9544D5543F1
:1009600005600BE04C4D6D6805F400351DB1504D30
:100970005543056002E04D4D5543056002E04B4D87
:10098000056000BF00BF444D6D6805F0F001090926
:10099000484D6B5C0568DD4045603F4D6D6805F472
:1009A000E061090A434D6B5C4568DD4085603A4D66
:1009B0006D6805F46051C90A3E4D6B5C4568DD40C9
:1009C000C560354D6D6805F44041890B3A4D6B5C4F
:1009D000C568B5FBF3F5056130BD29B12E4A5269F2
:1009E00002432D4B5A6104E02B4A526982432A4B41
:1009F0005A61704729B1284A92690243264B9A618D
:100A000004E0254A92698243234B9A61704729B1D9
:100A1000214AD2690243204BDA6104E01E4AD269BE
:100A200082431D4BDA61704729B11B4AD2680243E9
:100A3000194BDA6004E0184AD2688243164BDA6038
:100A4000704729B1144A12690243134B1A6104E03A
:100A5000114A12698243104B1A617047124940399A
:100A6000086070470F49C86470470B49C8717047E8
:100A70000948406A40F08070074948627047014663
:100A80000020054A92680A400AB1012000E00020D7
:100A90007047014988727047001002400000FFF85B
:100AA000FFFFF6FE000042428004424200127A003C
:100AB00000093D00140000202400002010B5044669
:100AC000FB48844209D101218803FFF7ADFF0021D3
:100AD0004FF48040FFF7A8FF32E0F648844209D186
:100AE00001214804FFF7ADFF00214FF40030FFF76C
:100AF000A8FF25E0F048844209D101218804FFF7CE
:100B0000A0FF00214FF48020FFF79BFF18E0EB4887
:100B1000844209D10121C804FFF793FF00214FF45B
:100B20000020FFF78EFF0BE0E548844208D1012149
:100B30000805FFF786FF00214FF48010FFF781FFC3
:100B400010BD2DE9F04786B005460E460024A246AA
:100B500000BFA1460027B08900B100BF2F462C8AF4
:100B60004CF6FF700440F08804432C82AC894EF6AA
:100B7000F3100440B0883189084371890843044365
:100B8000AC81AC8A4FF6FF400440B0890443AC828C
:100B900001A8FFF7C2FEC648874202D1DDF810A0C7
:100BA00001E0DDF80CA0A88900F4004040B10AEB98
:100BB000CA0000EB0A1031684900B0FBF1F807E009
:100BC0000AEBCA0000EB0A1031688900B0FBF1F8AB
:100BD0006420B8FBF0F004012009642101FB1089B6
:100BE000A88900F4004040B1322000EBC900B0FBFE
:100BF000F1F000F00700044308E0322000EB091098
:100C00006421B0FBF1F000F00F0004432C8106B02A
:100C1000BDE8F0874FF41651016000218180C1804A
:100C200001810C21418100218181704710B502466C
:100C30000020108A4FF2FF0318400B884C88234392
:100C40008C882343CC8823431843108210BD002195
:100C5000018041808180C180704721B1828942F446
:100C60000052828104E082894DF6FF731A4082812E
:100C70007047F0B50346002400260025002040F60A
:100C80006A17B94200D100BF1846C1F3421401F0FF
:100C90001F06012707FA06F5012C01D10C3004E0EC
:100CA000022C01D1103000E014301AB107682F4334
:100CB000076002E00768AF430760F0BD1AB1838A9E
:100CC0000B43838202E0838A8B4383827047028ACC
:100CD0004FF6F0731A400282028A0A43028270477A
:100CE00082894FF2FF731A40828182890A4382818E
:100CF000704721B1828942F00202828104E0828938
:100D00004FF6FD731A4082817047028A4FF6DF73F7
:100D10001A400282028A0A430282704721B1028A83
:100D200042F48042028204E0028A4BF6FF731A40CA
:100D300002827047C1F308028280704701468888AA
:100D4000C0F308007047818941F00101818170473B
:100D5000028BD2B20283028B42EA012202837047E5
:100D6000028B02F47F420283028B0A4302837047A4
:100D700021B1828A42F02002828204E0828A4FF608
:100D8000DF731A408282704721B1828A42F01002DA
:100D9000828204E0828A4FF6EF731A4082827047A3
:100DA00021B1828A42F00802828204E0828A4FF6F0
:100DB000F7731A408282704721B1828942F400425F
:100DC000828103E08289C2F30E028281704721B1E1
:100DD000828A42F40062828204E0828A4FF2FF73C8
:100DE0001A4082827047828A4FF6FB731A408282D1
:100DF000828A0A438282704721B1828A42F00202CB
:100E0000828204E0828A4FF6FD731A408282704724
:100E100002460020B1F5007F00D100BF13880B40CF
:100E20000BB1012000E00020704701F40072B2F520
:100E3000007F00D100BFCA430280704770B50246F0
:100E4000002400230025002040F66A16B14200D19C
:100E500000BFC1F3421501F01F03012606FA03F398
:100E6000012D02D19689334006E0022D02D1168A67
:100E7000334001E0968A33400C12012606FA04F44E
:100E80001688344013B10CB1012000E0002070BD81
:100E900010B50022002340F66A14A14200D100BF21
:100EA0000A1201249440A3B2DC43048010BD000068
:100EB000003801400044004000480040004C004021
:100EC0000050004010B50446FE48844208D101217C
:100ED000C014FFF7A9FD0021E014FFF7A5FDC4E051
:100EE000B4F1804F08D101210846FFF7AAFD002187
:100EF0000120FFF7A6FDB8E0F348844208D10121A4
:100F00000220FFF79EFD00210220FFF79AFDACE0D2
:100F1000EE48844208D101210420FFF792FD002110
:100F20000420FFF78EFDA0E0E948844208D10121AA
:100F30000820FFF786FD00210820FFF782FD94E0DE
:100F4000E448844208D101211020FFF77AFD0021F6
:100F50001020FFF776FD88E0DF48844208D10121A8
:100F60002020FFF76EFD00212020FFF76AFD7CE0C6
:100F7000DA48844208D101214014FFF755FD0021D1
:100F80006014FFF751FD70E0D548844209D101217A
:100F9000C804FFF749FD00214FF40020FFF744FD8E
:100FA00063E0D048844209D101210805FFF73CFDE8
:100FB00000214FF48010FFF737FD56E0CA48844205
:100FC00009D101214805FFF72FFD00214FF4001042
:100FD000FFF72AFD49E0C548844208D1012140209D
:100FE000FFF72FFD00214020FFF72BFD3DE0C0481B
:100FF000844208D101218020FFF723FD00218020B9
:10100000FFF71FFD31E0BB48844208D10121801564
:10101000FFF717FD0021A015FFF713FD25E0B648E7
:10102000844209D101210804FFF7FEFC00214FF49E
:101030008030FFF7F9FC18E0B048844209D1012163
:101040004804FFF7F1FC00214FF40030FFF7ECFCFF
:101050000BE0AB48844208D101218804FFF7E4FC8F
:1010600000214FF48020FFF7DFFC10BD0022028832
:10107000944B98420ED0994B98420BD0B0F1804FD0
:1010800008D0914B984205D0904B984202D0904B9B
:10109000984204D14FF68F731A404B881A438D4BF8
:1010A000984207D08C4B984204D04FF6FF431A4029
:1010B000CB881A4302808B8883850B880385814BFC
:1010C00098420BD0854B984208D08B4B984205D064
:1010D0008A4B984202D08A4B984201D10B7A038600
:1010E00001238382704770B5002400220023058C01
:1010F0004FF6FE7635400584028C8388048B4FF6CC
:101100008F752C40B51E2C400D882C43751E2A402F
:101110000D892A434D882A436A4DA8420BD06F4D52
:10112000A84208D0744DA84205D0744DA84202D000
:10113000734DA84213D14FF6F7752A404D892A43C3
:101140004FF6FB752A408D882A434FF6FF652B40EA
:101150004FF6FF552B408D892B43CD892B43838040
:101160000483CD888586028470BD70B5002400227A
:101170000023058C4FF6EF7635400584028C83887A
:10118000048B48F6FF752C404FF6FF452C400D8828
:101190004FF6FF7606EA05252C434FF6DF752A4009
:1011A0000D8906EA05152A434D8806EA05152A43E6
:1011B000444DA84202D0494DA8421DD14FF67F753B
:1011C0002A404D894FF6FF7606EA05152A434FF669
:1011D000BF752A408D8806EA05152A434FF6FF356C
:1011E0002B404FF2FF752B408D8906EA85052B4376
:1011F000CD8906EA85052B4383800483CD88058746
:10120000028470BD70B5002400220023058C4FF6C7
:10121000FF6635400584028C8388848B4FF68F757A
:101220002C404FF6FC752C400D882C434FF6FF5593
:101230002A400D894FF6FF7606EA05252A434D8898
:1012400006EA05252A431F4DA84202D0234DA84295
:101250001DD14FF2FF752A404D894FF6FF7606EA01
:1012600005252A434FF6FF352A408D8806EA0525D5
:101270002A434EF6FF752B404DF6FF752B408D89A6
:1012800006EA05152B43CD8906EA05152B43838015
:101290008483CD888587028470BD70B500220023C9
:1012A0000024058C4EF6FF7635400584038C848837
:1012B000828B48F6FF752A404FF6FF452A400D887D
:1012C00020E00000002C0140000400400008004025
:1012D000000C0040001000400014004000340140A9
:1012E000004C0140005001400054014000180040F3
:1012F000001C00400020004000400140004401402C
:10130000004801404FF6FF7606EA05252A434DF6D0
:10131000FF752B400D8906EA05352B434D8806EAFB
:1013200005352B43FA4DA84202D0FA4DA84208D108
:101330004BF6FF752C408D894FF6FF7606EA851532
:101340002C4384808283CD88A0F84050038470BDF4
:10135000828B4FF2FF331A408283828B4FF6FF73EA
:1013600003EA01231A4382837047F0B50C46154601
:10137000002200210026078C4EF6FF7C07EA0C07AE
:101380000784828B018C4FF6FF7707EA043640F61C
:10139000FF473A404FF6FF7707EA05273A434FF6F3
:1013A000FF7707EA03373A43D94FB8420ED0D94FF7
:1013B000B8420BD0B0F1804F08D0D74FB84205D01B
:1013C000D64FB84202D0D64FB84206D14DF6FF777D
:1013D000394046F48057394305E047F6FF57394016
:1013E00044F48057394382830184F0BD828B4FF6E9
:1013F000F3731A408283828B0A4382837047F0B56D
:101400000C461546002200210026078C4FF6FF6C83
:1014100007EA0C070784828B018C4FF6FF7707EAF7
:1014200004264FF60C773A404FF6FF7707EA03178A
:101430002F433A43B64FB8420ED0B64FB8420BD006
:10144000B0F1804F08D0B44FB84205D0B34FB84286
:1014500002D0B34FB84206D14FF6FF57394046F499
:101460008077394305E04FF2FF57394044F48077E5
:10147000394382830184F0BD028B4FF2FF331A405F
:101480000283028B4FF6FF7303EA01231A430283A0
:101490007047F0B50C461546002200210026078C47
:1014A0004FF6EF7C07EA0C070784028B018C4FF69E
:1014B000FF7707EA041640F6FF473A404FF6FF77FA
:1014C00007EA03373A434FF6FF7707EA05273A431F
:1014D0008F4FB8420ED08F4FB8420BD0B0F1804F33
:1014E00008D08D4FB84205D08C4FB84202D08C4FF7
:1014F000B84206D14FF6DF77394046F0100739433E
:1015000005E04FF65F77394044F010073943028316
:101510000184F0BD028B4FF6F3731A400283028BF5
:101520000A4302837047F0B50C461546002200219D
:10153000068C4FF6FE773E400684028B018C4FF6F8
:101540000C7632407E1C06EA03162E433243704E60
:10155000B0420ED06F4EB0420BD0B0F1804F08D0E9
:101560006D4EB04205D06D4EB04202D06C4EB042CE
:1015700006D14FF6FD76314044F00106314305E0D7
:101580004FF6F576314044F0010631430283018481
:10159000F0BD70B505460C465D4885420ED05D48ED
:1015A00085420BD0B5F1804F08D05B48854205D00D
:1015B0005A48854202D05A48854200D100E000BF17
:1015C000208850B92389A28861882846FFF7ABFF9D
:1015D000E1882846FFF79EFF25E0208804280AD1ED
:1015E0002389A28861882846FFF753FFE1882846AF
:1015F000FFF742FF17E0208808280AD12389A28834
:1016000061882846FFF7FBFEE1882846FFF7EEFEDB
:1016100009E02389A28861882846FFF7A6FEE188B1
:101620002846FFF795FE70BD2DE9F04105460C46B2
:1016300000260127608808B9022600E00026A0885D
:10164000012801D1022700E001272088A0B92389C1
:10165000A28861882846FFF766FFE1882846FFF7E1
:1016600059FF23893A4631462846FFF712FFE188A1
:101670002846FFF701FF13E02389A28861882846E6
:10168000FFF707FFE1882846FFF7F6FE23893A4671
:1016900031462846FFF747FFE1882846FFF73AFF23
:1016A000BDE8F0810A884B881A438B881A43CB889F
:1016B0001A430B891A434B891A438B891A43A0F8A2
:1016C000442070474FF6FF71818000210180C18066
:1016D0004180017270470021018041808180C1807A
:1016E000018141818181C181704700210180418058
:1016F000012181800021C18001817047002101808A
:1017000041808180C18001814181818170470000D9
:10171000002C01400034014000040040000800405B
:10172000000C004021B1028842F00102028004E076
:1017300002884FF6FE731A400280704731B1B0F84C
:10174000442042F40042A0F8442005E0B0F84420D0
:10175000C2F30E02A0F8442070471AB183890B43EC
:10176000838102E083898B43838170478182704744
:1017700041EA0203A0F8483070471AB183890B434D
:10178000838102E083898B438381704701894FF60F
:10179000F8721140018170470A46002101894FF615
:1017A0008F73194011430181704730B504460D46CF
:1017B00029462046FFF7F0FF208940F007002081EE
:1017C00030BD2DE9F04104460D4616461F46602DFA
:1017D00006D13B46012231462046FFF75AFE05E07E
:1017E0003B46012231462046FFF79DFE2946204612
:1017F000FFF7D2FF208940F007002081BDE8F0818B
:1018000030B50C4600210189C9B24FF6FF7505EAD3
:101810000325154325432943018130BD2DE9F041BE
:1018200005460E4617469846002443463A4631463A
:101830002846FFF7E5FF2C894FF6F870044044F086
:1018400007044FF68F70044044F070042C81BDE80B
:10185000F081F0B504460D4616461F463B4632461B
:1018600029462046FFF7CCFF208940F480402081A4
:10187000F0BD0185828270470A46002101884FF63B
:101880008F731940114301807047F0B50C4615461F
:101890001E460021002200230189028B038C4FF693
:1018A000F877394021434FF6FC473A4040F20117A0
:1018B0003A434FF6DD773B404FF6FF7707EA0617CE
:1018C0002F433B43018102830384F0BD0A4600217C
:1018D000018B4FF68F7319401143018370470A46FD
:1018E0000021018B48F6FF7319404FF6FF7303EA9E
:1018F00002231943018370470A460021818B4FF66A
:101900008F7319401143818370470A460021818BF0
:1019100048F6FF7319404FF6FF7303EA0223194399
:101920008183704721B1028842F08002028004E086
:1019300002884FF67F731A400280704721B1828877
:1019400042F00402828004E082884FF6FB731A4062
:101950008280704721B1828842F00802828004E0D0
:1019600082884FF6F7731A408280704721B18288CF
:1019700042F00102828004E082884FF6FE731A4032
:10198000828070470A460021018B4FF6F773194099
:101990001143018370470A460021018B4FF2FF7308
:1019A00019404FF6FF7303EA02231943018370477E
:1019B0000A460021818B4FF6F7731940114381834A
:1019C00070470A460021818B4FF2FF7319404FF692
:1019D000FF7303EA02231943818370470A460021FB
:1019E000018B4FF6FB7319401143018370470A4680
:1019F0000021018B4FF6FF3319404FF6FF7303EAC6
:101A000002231943018370470A460021818B4FF658
:101A1000FB7319401143818370470A460021818B73
:101A20004FF6FF3319404FF6FF7303EA02231943C1
:101A3000818370470A460021018B4FF67F7319405E
:101A40001143018370470A460021018BC1F30E0147
:101A50004FF6FF7303EA02231943018370470A46D6
:101A60000021818B4FF67F731940114381837047AA
:101A70000A460021818BC1F30E014FF6FF7303EA82
:101A800002231943818370470A460021018C4FF6D7
:101A9000FD7319401143018470470A460021018CEF
:101AA0004FF6F77319401143018470470A4600212D
:101AB000018C4FF6DF7319404FF6FF7303EA0213F0
:101AC0001943018470470A460021018C4FF67F7349
:101AD00019404FF6FF7303EA02131943018470475C
:101AE0000A460021018C4FF6FF5319404FF6FF7351
:101AF00003EA02231943018470470A460021018C3E
:101B00004FF2FF7319404FF6FF7303EA02231943A4
:101B1000018470470A460021018C4DF6FF7319407D
:101B20004FF6FF7303EA023319430184704730B55F
:101B3000002301248C40A3B2048C9C430484048CB5
:101B400002FA01F5ADB22C43048430BD30B5002358
:101B500004248C40A3B2048C9C430484048C02FAB9
:101B600001F5ADB22C43048430BD70B503460020AE
:101B700000241846183001258D40ACB21D8CA543B9
:101B80001D8409B1082909D100EB6100056825F021
:101B9000700505600568154305600EE00D1FC5F36F
:101BA0004E052844056825F4E045056005684FF6B4
:101BB000FF7606EA02263543056070BD21B1028832
:101BC00042F00202028004E002884FF6FD731A40E0
:101BD0000280704721B1028842F00402028004E0D2
:101BE00002884FF6FB731A400280704721B1828849
:101BF00042F08002828004E082884FF67F731A40B0
:101C00008280704702884FF6F7731A40028002887C
:101C10000A430280704782884FF68F731A40828091
:101C200082880A438280704702894FF6F8731A400F
:101C3000028102890A430281704702894FF67F734D
:101C40001A40028102890A430281704781847047E9
:101C5000818570478186704701877047818770470B
:101C6000A0F84010704702884FF6FF431A400280E8
:101C700002880A43028070470146888E70470146F9
:101C8000088F70470146888F70470146B1F84000C1
:101C900070470146888C70470146088D70470246A0
:101CA0000020138A0B400BB1012000E00020704798
:101CB000CA430282704730B5024600200023002448
:101CC000158A05EA0103958905EA010413B10CB1EF
:101CD000012000E0002030BDCA43028270470000AE
:101CE00010B50446FA48844208D101214015FEF798
:101CF0009BFE00216015FEF797FE17E0F548844231
:101D000008D101210015FEF78FFE00212015FEF7F6
:101D10008BFE0BE0F048844208D10121C803FEF796
:101D200083FE00214FF40040FEF77EFE10BD30B56B
:101D30000246002000235068E84C20400D790C68D2
:101D400044EA0524204350609068E54C2040D1E9E6
:101D500002542C434D7944EA450420439060D06AF4
:101D600020F470000C7C641EE4B2234340EA03506C
:101D7000D06230BD00210160017141718160C1609C
:101D800001210174704721B1826842F00102826032
:101D900003E0826822F001028260704721B182680C
:101DA00042F48072826003E0826822F48072826072
:101DB000704710B50023CBB21AB144681C4344608D
:101DC00002E044689C43446010BD816841F0080112
:101DD00081607047014600208A6802F008020AB15B
:101DE000012000E000207047816841F0040181601B
:101DF0007047014600208A6802F004020AB10120FF
:101E000000E00020704721B1826842F4A0028260A5
:101E100003E0826822F4A00282607047014600203D
:101E20008A6802F480020AB1012000E000207047B5
:101E300010B50A4600210023416821F46041531E79
:101E400041EA4331416010BD21B1426842F4006271
:101E5000426003E0426822F4006242607047F0B5DD
:101E600004460D4600200021092D11DDE068A5F192
:101E70000A0606EB4607072606FA07F18843A5F18E
:101E80000A0606EB460603FA06F10843E0600CE09A
:101E9000206905EB4507072606FA07F1884305EB9D
:101EA000450603FA06F108432061072A0FDA606B42
:101EB000561E06EB86071F2606FA07F18843561EB4
:101EC00006EB860605FA06F10843606322E00D2A58
:101ED0000FDA206BD61F06EB86071F2606FA07F1DE
:101EE0008843D61F06EB860605FA06F108432063F1
:101EF00010E0E06AA2F10D0606EB86071F2606FA3F
:101F000007F18843A2F10D0606EB860605FA06F1F5
:101F10000843E062F0BD21B1826842F48012826021
:101F200003E0826822F48012826070470146C86C28
:101F300080B2704766484C300068704721B14268F3
:101F400042F48062426003E0426822F480624260B0
:101F5000704721B1426842F48052426003E0426817
:101F600022F48052426070470A460021816821F4C1
:101F7000E04111438160704721B1826842F4004220
:101F8000826003E0826822F400428260704721B1DF
:101F9000826842F40212826003E0826822F4021234
:101FA00082607047014600208A6802F400120AB17C
:101FB000012000E000207047F0B5044615460020DF
:101FC00000220026092911DDE068A1F10A0707EBCC
:101FD000470C072707FA0CF29043A1F10A0707EB19
:101FE000470703FA07F21043E0600CE0206901EBB9
:101FF000410C072707FA0CF2904301EB410703FA63
:1020000007F210432061A06BC0F30156EF1C06F1EC
:10201000010CA7EB0C0707EB870C1F2707FA0CF244
:102020009043EF1C06F1010CA7EB0C0707EB8707A9
:1020300001FA07F21043A063F0BD10B50A46002173
:102040000023816B21F44011531E41EA0351816347
:1020500010BD08B5002300930090009B0B44009333
:10206000009B1A6008BD08B502460020009000924F
:1020700001F12800009B184400900098006880B28D
:1020800008BD0A4600214168164B194011434160C2
:1020900070474162826270470A460021416821F020
:1020A0001F0111434160704740B109490831096877
:1020B00041F40001064A0832116007E00449083182
:1020C000096821F40001024A0832116070470000DB
:1020D0000024014000280140003C0140FFFEF0FFC9
:1020E000FDF7F1FFFFFD3FFF0246002013680B40A4
:1020F0000BB1012000E000207047CA430260704726
:1021000070B502460020002300240B125568CEB2A1
:1021100005EA060415681D4015B10CB1012000E068
:10212000002070BD00220A12D343036070470000F4
:1021300070B592B004460D46164601210846FEF7DA
:102140004CFC4148844204D101214FF40470FEF755
:1021500051FC3E48844204D101214FF40170FEF746
:1021600049FC3B48844204D101214FF40270FEF740
:1021700041FCADF8445000208DF8470011A92046DD
:10218000FEF77CF9334800F065F93348069007966E
:10219000002008900120099000200A900B904FF435
:1021A00080700C9080000D9020200E9000020F9007
:1021B0000020109006A9274800F0EEF901212548DB
:1021C00000F015FA0020019001208DF808008DF82C
:1021D00009004FF4602003900020049001208DF846
:1021E000140001A91C484C38FFF7A1FD052301226A
:1021F000194619484C38FFF732FE012116484C3871
:10220000FFF7CCFD012114484C38FFF7BCFD124804
:102210004C38FFF7DAFD00BF0F484C38FFF7DAFD06
:102220000028F9D10C484C38FFF7DEFD00BF0A4802
:102230004C38FFF7DEFD0028F9D1012106484C3863
:10224000FFF7E1FD12B070BD001001400008014031
:10225000000C0140080002404C24014030B587B01A
:1022600005460C467848854237D101210520FEF706
:10227000C1FB01218803FEF7BDFB18208DF80B0080
:102280006815ADF8080003208DF80A0002A96F4810
:10229000FEF7F4F804208DF80B000002ADF80800FA
:1022A00002A96A48FEF7EAF803940020ADF810008E
:1022B000ADF81200ADF81400ADF818000820ADF824
:1022C000160003A92846FEF73CFC01212846FEF72C
:1022D000C4FC4FF4E060FEF703F85D48854249D145
:1022E00001210520FEF786FB01214804FEF78FFB44
:1022F00018208DF80B000420ADF8080003208DF89D
:102300000A0002A95148FEF7B9F804208DF80B0025
:102310000820ADF8080002A94C48FEF7AFF8039476
:102320000020ADF81000ADF81200ADF81400ADF8C3
:1023300018000C20ADF8160003A92846FEF701FC92
:10234000012240F225512846FEF793FC0121284640
:10235000FEF783FC4FF4E060FDF7C2FF26208DF806
:10236000040000208DF8060001208DF8070001A868
:10237000FDF7BBFF07B030BD70B505460C46E1B2B6
:102380002846FEF7D7FC00BF40F227712846FEF72B
:102390003FFD0028F8D070BD10B5044600BF40F2E4
:1023A00025512046FEF734FD0028F8D02046FEF7E0
:1023B000C5FC10BD10B504462348FFF7EDFF10BD66
:1023C00070B504460D46E1B21F48FEF7B3FC00BFEE
:1023D00040211D48FEF71CFD0028F9D0204670BDA5
:1023E0002DE9F04707460D4614462E464FF00008EB
:1023F0003846FEF7A3FC8146B9F10A0F0CD0B4F9B8
:10240000000006443846FEF799FC307000BF208873
:10241000401C00B2208001E04FF001084046BDE8BA
:10242000F0872DE9F04180460D461646002400BF96
:1024300005E02F5D39464046FFF79EFF641CB4421D
:10244000F7DBBDE8F08100000038014000080140E2
:102450000044004001684FF6FE7211400160002107
:10246000016041608160C1608D49884208D18C491A
:102470000839496841F00F01894A083A51608AE0F9
:1024800087491431884208D185490839496841F0A3
:10249000F001834A083A51607DE081492831884241
:1024A00008D17F490839496841F470617C4A083A8B
:1024B000516070E07A493C31884208D17849083946
:1024C000496841F47041764A083A516063E07449C2
:1024D0005031884208D172490839496841F4702165
:1024E0006F4A083A516056E06D496431884208D11C
:1024F0006B490839496841F47001694A083A5160EA
:1025000049E067497831884208D165490839496806
:1025100041F07061624A083A51603CE0614988428A
:1025200006D1011F096841F00F01021F116032E05E
:102530005C491431884208D15A49091F096841F0A1
:10254000F001584A121F116025E05649283188428F
:1025500008D15449091F096841F47061514A121F9A
:10256000116018E04F493C31884208D14D49091F9C
:10257000096841F470414B4A121F11600BE0494950
:102580005031884207D14749091F096841F4702139
:10259000444A121F1160704710B50022026847F6C6
:1025A000F0739A430C6A8B6823430C6923434C698C
:1025B00023438C692343CC6923434C6A23438C6AAD
:1025C00023431A430260CB6843600B6883604B6807
:1025D000C36010BD0021016041608160C160016184
:1025E00041618161C161016241628162704721B1D3
:1025F000026842F00102026004E002684FF6FE73D6
:102600001A40026070471AB103680B43036002E08E
:1026100003688B4303607047416070470146486818
:1026200080B2704701460020002201F080531BB1A8
:102630001C4B083B1A6802E0194B083B1A6802EA77
:1026400001030BB1012000E00020704700F0805131
:1026500019B11449091F086002E01149083948609E
:10266000704701460020002201F080531BB10D4B42
:10267000083B1A6802E00A4B083B1A6802EA0103A9
:102680000BB1012000E00020704700F0805119B12B
:102690000449091F086002E0014908394860704791
:1026A000080002400804024010B500F0EDF810BD2B
:1026B00010B500F0FAF810BD2DE9F04104464FF0D6
:1026C000000800250026424F002302220321414832
:1026D00000F0BDF800F0F0F803213E4800F0C9F822
:1026E00044F2506000F0FAF803213A4800F0BDF8D7
:1026F000282000F0F3F801220321364800F096F874
:1027000004E0781E071E01DC012605E003213148A4
:1027100000F097F80028F4D000BF2D4F66B904E010
:10272000781E071E01DC012605E00321294800F080
:1027300088F80128F4D000BF002E39D1002535E0FB
:102740004FF000082EE0224F04E0781E071E01DC47
:10275000012605E003211F4800F073F80028F4D09B
:1027600000BF03211B4800F06CF8012802D11E2095
:1027700000F0B4F8605D4006000E60550321154876
:1027800000F05FF8012807D1282000F0A7F8605D6D
:1027900040F00100605503E0605D00F0FE00605510
:1027A00008F10108B8F1080FCDDB6D1C052DC7DB62
:1027B00000F08BF846B92078A17808442179884246
:1027C00001D0022600E000263046BDE8F08100007E
:1027D000A08601000018014070B5044600200829B9
:1027E00010DA20688E000F25B540A8438D0002FA4C
:1027F00005F52843022505EB810503FA05F5284375
:10280000206012E0A1F10805E9B260688E000F2592
:10281000B540A8438D0002FA05F52843022505EBD3
:10282000810503FA05F52843606070BD70B5054663
:102830000E4614462346002231462846FFF7CCFFB9
:1028400070BD02469068C84000F0010070472DE955
:10285000F04104460D4616461F463B463246294681
:102860002046FFF7B9FFBDE8F08101228A400261EE
:10287000704701228A40426170470246D068C840D2
:1028800000F00100704700001A48C06940F00100E4
:102890001849C8610020890408804FF6FF708885B8
:1028A000472008850120888270471248C06920F0BF
:1028B00001001049C86170474FF08040008840F027
:1028C00001004FF08041088070474FF08040008841
:1028D00020F001004FF080410880704700214FF048
:1028E0008042918400BF4FF08041898C8142FADDA3
:1028F000704700000010024010B501210420FEF7CF
:1029000086F8F84800684008F749B0FBF1F0401E2F
:10291000F649088040F2E73088800020C88048806F
:10292000F348FEF7A3FB01221146F148FEF715FF1D
:102930000121EF48FEF7F6FE1E20EE490870002048
:10294000487001208870C8700846FDF7CEFC10BDA5
:1029500001216C20FEF74EF81020E749C8704FF4B3
:10296000E060088003208870E448FDF787FD1020B0
:10297000E1490880C87003208870E148FDF77EFDBA
:102980000220DD4908804820C87003208870DD4897
:10299000FDF774FD4FF48070D74908802820C87077
:1029A00003208870D648FDF769FD0220D2490880CF
:1029B0004820C87003208870D348FDF75FFD1021C0
:1029C000CF48FDF708FE4FF48071CC48FDF703FEB9
:1029D0004FF40071C948FDF700FE4FF41651CB4883
:1029E000FFF73CFC4FF41651C948FFF737FC0020B5
:1029F000C849086004E0C7480068401CC549086031
:102A0000C4480068C4498842F5D34FF48071BB487C
:102A1000FDF7E3FD1021BA48FDF7DFFD0020BD49B9
:102A2000086004E0BB480068401CBA490860B94827
:102A30000068B9498842F5D34FF48071AF48FDF77B
:102A4000CAFD1021AE48FDF7C6FD0020B14908605F
:102A500004E0B0480068401CAE490860AD4800681A
:102A6000AD498842F5D34FF40071A448FDF7B3FD9A
:102A7000AAA000F039FB0020A649086004E0A548A0
:102A80000068401CA3490860A2480068A249884227
:102A9000F5D34FF400719948FDF79FFD00209D4943
:102AA000086004E09B480068401C9A490860994807
:102AB000006899498842F5D34FF400718F48FDF7BB
:102AC0008AFD9BA000F010FB00209249086004E002
:102AD00090480068401C8F4908608E4800688E4905
:102AE0008842F5D34FF400718448FDF776FD00204D
:102AF0008849086004E087480068401C85490860F0
:102B00008448006884498842F5D34FF400717B48BB
:102B1000FDF761FD8AA000F0E7FA00207D4908601A
:102B200004E07C480068401C7A49086079480068E5
:102B300079498842F5D34FF400717048FDF74DFD97
:102B400000207449086004E072480068401C714924
:102B500008607048006870498842F5D34FF40071EE
:102B60006648FDF738FD7BA000F0BEFA00206949F9
:102B7000086004E067480068401C664908606548D2
:102B8000006865498842F5D34FF400715B48FDF752
:102B900024FD00205F49086004E05E480068401C96
:102BA0005C4908605B4800685B498842F5D34FF494
:102BB00000715248FDF70FFD69A000F095FA002062
:102BC0005449086004E053480068401C51490860BB
:102BD0005048006850498842F5D34FF40071474887
:102BE000FDF7FBFC00204B49086004E04948006801
:102BF000401C484908604748006847498842F5D367
:102C00004FF400713D48FDF7E6FC55A000F06CFA6A
:102C100000204049086004E03E480068401C3D49EF
:102C200008603C4800683C498842F5D34FF4007185
:102C30003248FDF7D2FC00203649086004E03548F0
:102C40000068401C334908603248006832498842B5
:102C5000F5D34FF400712948FDF7BDFC42A000F008
:102C600043FA00202B49086004E02A480068401C11
:102C7000284908602748006827498842F5D34FF45F
:102C800000711E48FDF7A9FC00202249086004E0FD
:102C900020480068401C1F4908601E4800681E4903
:102CA0008842F5D34FF400711448FDF794FC30A02E
:102CB00000F01AFA00201749086004E0154800687F
:102CC000401C144908601348006813498842F5D332
:102CD0004FF400710948FDF780FC00200D490860A1
:102CE00055E000000000002040420F007C00002062
:102CF000000800405800002054000020001401404B
:102D000000080140000C014000180140003801405B
:102D10000044004044000020FFFF0F00646F66691C
:102D20006C652827756172742E6C756127290A00FD
:102D30005468616E684C655F737369640A000000D3
:102D40003235303530387468406E685F7061737347
:102D50000A000000636F6E6E6563740A0000000075
:102D60007374617475730A00717569740A000000E8
:102D70003D776966692E7374612E67657469702882
:102D8000290A000059480068401C58490860574803
:102D9000006857498842F5D34FF400715548FDF754
:102DA0001AFC55A000F0A0F900205049086004E08A
:102DB0004E480068401C4D4908604C4800684C492A
:102DC0008842F5D34FF400714A48FDF706FC002015
:102DD0004649086004E045480068401C43490860D3
:102DE0004248006842498842F5D3484A0121484890
:102DF000FFF79EF9FFF780FDFFF756FC01204549DC
:102E0000087071E002214248FDF7CBFB424908708F
:102E10004FF480714148FDF7C4FB4149087002211D
:102E20004048FDF7BEFB4049087040480078012843
:102E30005AD138480078002856D03D4801883D488E
:102E4000FDF778FF4FF480612A48FDF7C4FB3A484C
:102E5000FFF732FC38B938480078384908703648EE
:102E60008078374908702C48007818B935A000F0F0
:102E70003BF902E035A000F037F92948007818B195
:102E800034A000F031F902E034A000F02DF926481A
:102E9000007818B933A000F027F902E033A000F061
:102EA00023F93448016834A000F01EF92448017861
:102EB00033A000F019F92148017833A000F014F98B
:102EC00033A000F011F900200849086004E0074829
:102ED0000068401C05490860044800682E49884283
:102EE000F5D30020114908708CE700004400002051
:102EF000FFFF0F0000140140646F66696C652827AE
:102F0000646F616E2E6C756127290A0048000020ED
:102F1000000C01404A0000202E0000200008014063
:102F20002F00002000180140300000202B0000205E
:102F30002C000020004400404B0000203D000020F9
:102F40003C000020315F670A00000000305F670A24
:102F500000000000315F630A00000000305F630A78
:102F600000000000315F6D0A00000000305F6D0A54
:102F7000000000004000002025645F640A0000009B
:102F800025645F740A00000025645F680A00000081
:102F90005550444154450A00FFFF2F00704700BFC1
:102FA000FEE700BFFEE700BFFEE700BFFEE7704799
:102FB000704770477047704710B540F2255124485C
:102FC000FDF73CFF10BD10B540F225512148FDF73B
:102FD00035FFF0B120480068401C1F4908601D48BB
:102FE000FDF7ACFE1D491C4A126821F812001A4870
:102FF000006801280DD1801E1749086017484188D4
:10300000008801EB00201649086000201349088061
:10301000488010BD10B501211248FEF74CFEA8B142
:1030200011480068401C10490860B0F57A7F09D942
:10303000002008604FF480610C48FDF7CEFA0120B3
:103040000B49087001210748FEF746FE10BD00003D
:1030500000380140004400403800002032000020C9
:1030600040000020000800406000002000140140E3
:103070002B0000200648804706480047FEE7FEE791
:10308000FEE7FEE7FEE7FEE7FEE7FEE7FEE7FEE718
:10309000DF010008ED00000830B50B4601460020B6
:1030A0002022012409E021FA02F59D4205D303FA0A
:1030B00002F5491B04FA02F52844151EA2F101028B
:1030C000F1DC30BD064C074D06E0E06840F001033E
:1030D00094E8070098471034AC42F6D3FDF70AF89D
:1030E0007C3200089C3200080FB4054B10B503A9D0
:1030F000044A029800F018F810BC5DF814FB0000B8
:10310000C12300086400002002E008C8121F08C1A3
:10311000002AFAD170477047002001E001C1121F58
:10312000002AFBD1704700002DE9FF4F89B09B4674
:103130000446002506E025280BD05A460B999047F7
:10314000641C6D1C20780028F5D10DB02846BDE820
:10315000F08F0027B8460122474900E0074314F8E2
:10316000013F203B02FA03F00842F7D120782E28D5
:1031700019D114F8010F47F004072A280ED06FF078
:103180002F022078A0F1300109290CD808EB880122
:1031900002EB410100EB0108641CF2E70A98641C91
:1031A00050F8048B0A9020780028CED0642808D0EC
:1031B000692806D075281ED05A460B9990476D1C79
:1031C00058E00A994FF00A0901C90A91002802DA69
:1031D00040422D2102E0390504D52B218DF8201025
:1031E000012103E0F90704D02021F7E78A4608AE61
:1031F0000DE00021FAE70A994FF00A0901C90A9186
:10320000F7E74946FFF748FF303106F8011D00286F
:10321000F7D1ADEB060000F12009780701D44FF09B
:103220000108C84502DDA8EB090000E00020804647
:10323000002706E008A85A46C05D0B9990476D1C10
:103240007F1C5745F6DB04E030205A460B99904727
:103250006D1CB8F10001A8F10108F5DC05E016F8D5
:10326000010B5A460B9990476D1CB9F10001A9F169
:103270000109F4DC641C65E7092801009C320008A0
:103280000000002068000000083100080433000836
:1032900068000020200400001831000800A24A0441
:1032A00000000000000000000102030406070809F6
:1032B00000000000010203040102030406070809DC
:1032C0000204060800000000550000000000000095
:1032D00000000000000000000000000000000000EE
:1032E00000000000000000000000000000000000DE
:1032F00000000000000000000000000000000000CE
:0433000000000000C9
:04000005080030754A
:00000001FF
