:020000040800F2
:1000000080050020352F0008B12E0008B32E00080F
:10001000B52E0008B72E0008B92E00080000000019
:10002000000000000000000000000000BB2E0008DF
:10003000BD2E000800000000BF2E0008C12E0008E1
:10004000572F00085B2F00085F2F0008632F000860
:10005000672F00086B2F00086F2F0008732F000810
:10006000772F00087B2F00087F2F0008832F0008C0
:10007000872F00088B2F00088F2F0008932F000870
:10008000972F00089B2F00089F2F0008A32F000820
:10009000A72F0008AB2F0008AF2F0008B32F0008D0
:1000A000B72F0008BB2F0008BF2F0008C32F000880
:1000B000C72F0008CB2F0008CF2F0008D32F000830
:1000C000D72F0008DB2F0008DF2F0008E32F0008E0
:1000D000E72F0008EB2F0008EF2F0008F32F000890
:1000E000F72F0008FB2F0008FF2F0008033000083F
:1000F000073000080B3000080F30000813300008EC
:10010000173000081B3000081F300008233000089B
:10011000273000082B3000082F300008333000084B
:10012000373000083B3000083F30000843300008FB
:100130002DE9F04F0FF2B01BA1B0DBE90045CDE98E
:100140000045049100212A9EDFF8008C8DF8436061
:100150000D914FF0FF3B814617461D460FE0BA4612
:1001600034461AF8011B0498C8470028049000F090
:10017000A7800D98401C641E0D90F2D1BF193878ED
:10018000252807D100210791089109910A910B9127
:100190000C910DE06A465946384600F0E3FF060030
:1001A00001D10D98A8E0DAD50126E7E741F0010179
:1001B00017F8010F2028F9D023280DD02B2804D0C0
:1001C0002D2806D030280AD07CE041F0020189B207
:1001D000EEE741F00401FAE741F00801F7E741F0EA
:1001E0001001F4E700200F9009E00F98404505DA70
:1001F00000EB800302EB4302303A0F927F1C3A7807
:10020000A2F130000A28F0D33A782E2A18BFCDF890
:1002100038B023D117F8010F2A2807D128682860A1
:100220007F1C50F8042B28600E9217E02D280CBF7D
:1002300017F8010B002000220E920AE040B90E9A36
:10024000424505DA02EB820403EB4403303B0E9394
:100250007F1C3B78A3F130020A2AEFD3ADF840109F
:100260000FF28C00397800F089FF08B117F8010B04
:100270008DF842009DF84200682804BF397868294B
:1002800003D162208DF8420007E06C2804BF387863
:100290006C2803D171218DF842107F1C12A80690A2
:1002A0002A4617F8013B02A9484600F065F838B91C
:1002B00012AA02A9484600F0C7F900287FF55FAFEF
:1002C000584619E02A288DD12868286050F8042B58
:1002D0002860002A0F9204D5524241F004010F9287
:1002E00089B27F1C90E700000000000000000000C1
:1002F000686A6C747A4C000021B0BDE8F08F622807
:1003000020D0682811D06A2803D06C2827D0712803
:1003100025D10868C01D20F007000860D0E900233F
:1003200008300860194610467047002A0A680A60BB
:10033000106803D0121D0A6000B217E0121D0A6097
:1003400080B217E0002A0A680A60106803D0121D04
:100350000A6040B20AE0121D0A60C0B20AE0002A38
:100360000A680A60106803D0121D0A60C11770473E
:10037000121D0A60002170477CB50D4611461C46CF
:100380002E69B4F1250200F04D811C3A00F0868000
:10039000121F022A40F282800E3A00F00781521F9B
:1003A0005AD0093A7AD0921E16D0521E35D0521E1B
:1003B000022A73D9121F30D0521F00F09A80521EA9
:1003C0004AD0521E00F0E480D21E00F0FD80921E42
:1003D00042D0D21E40D02BE195F83A206C2A09D0A9
:1003E0006869421C6A610A680A6052F8043B0A6044
:1003F000335427E10A680A6052F8043B0A6000217E
:10040000009301914FF0FF322A6329466A4600F0BB
:1004100096F9002840F1168101E195F83A00012291
:10042000FFF76DFFC5E900010023994204DA68690E
:10043000411C69612D210DE0288F810704D5686971
:10044000411C69612B2105E0C00722D56869411C68
:100450006961202131541CE095F83A000022FFF731
:100460004EFFC5E9000195F83800010711D5D5E91F
:1004700000230020834208BF82420AD044F02000BB
:10048000782806D1686930213154401C411C6961CB
:100490003454214668693044E86083E00868C01D30
:1004A00020F007000860D0E9002308300860C5E9A3
:1004B0000023D5E90001C80F04D06869411C6961B7
:1004C0002D210DE0288F810704D56869411C6961E1
:1004D0002B2105E0C00704D56869411C6961202112
:1004E000315468693044E8602146284600F02FFA0C
:1004F000A8E005F13A02507820B14FF0FF340FF632
:10050000043070E01078622808D0682824D06A2867
:1005100012D06C282ED071280ED02BE00A680A6009
:1005200052F8040B0A6020B94FF0FF340FF6EC20AC
:1005300059E0E96A017085E00A680A6052F8040B24
:100540000A6020B94FF0FF340FF6D0204BE0EA6A82
:10055000D317C0E9002375E00A680A6052F8040B5B
:100560000A6020B94FF0FF340FF6B0203BE0E96A93
:10057000018067E00A680A6052F8040B0A6020B93B
:100580004FF0FF340FF694202DE0E96A016059E046
:100590000A680A6052F8040B0A600021C5E90001EC
:1005A000EE607821284600F02AF94BE06C2285F8AD
:1005B0003A200B680B6053F8042B0B6052BB4FF0D2
:1005C000FF340FF68C200EE095F83A206C2AF0D01C
:1005D0000868086050F8044B0860EC603CB94FF0C4
:1005E000FF340FF6502000F0E3FD201A76BD2E6B8D
:1005F000002E04D5204600F0FDFD044608E03246FA
:100600000021204600F012FE002814BF041B3446CF
:10061000AC6117E0294600F092F8002812D54FF09F
:10062000FF3076BD6869411C69612521315409E0BC
:100630006869411C696125223254200002D0481C9F
:1006400068617454002076BD2DE9F0410D460446E2
:10065000696B6869AE6A091A286A091AA869091AD1
:10066000686A091AE869091A95F838008E1B41076B
:1006700090460DD4002E0BDD3746A8682021A047F8
:100680000028A86057D0E86A401C7F1EE862F4D1B9
:100690006B6942462946204600F09DFC00284AD15D
:1006A0002F6A002F0ADDA8683021A0470028A86023
:1006B00041D0E86A401C7F1EE862F4D1AB69EA6869
:1006C0002946204600F087FCA8BB6F6A002F09DD91
:1006D000A8683021A047A86068B3E86A401C7F1E64
:1006E000E862F5D1E868A969EB6942182946204615
:1006F00000F071FCF8B9AF6A002F09DDA86830215D
:10070000A047A860B8B1E86A401C7F1EE862F5D136
:1007100095F8380041070BD5002E09DDA868202187
:10072000A047A86038B1E86A401C761EE862F5D19F
:100730000020BDE8F0814FF0FF30BDE8F0812DE9E9
:10074000F0470D46A4B02E6B002E8046914648BF60
:100750006FF0004600F096FD0246686B0FF60C1332
:100760001218D3E90001CDE90101812A28BF4FF019
:10077000FF303ED20024002E2FDDD9F8001001AA50
:10078000684600F0F1FC0746002F35D4D9F8000088
:1007900008B97F1E30D4BE421FDB68693818812833
:1007A0000AD30020686303AA29464046FFF74CFF9E
:1007B000040012D40020686103A8D5F814A03A46BA
:1007C0006946504400F064FDBA44C5F814A059F8D5
:1007D000040B002818BFF61BCDD12CB903AA29465B
:1007E0004046FFF731FF044614B900206861686392
:1007F000204624B0BDE8F0874FF0FF34F8E72DE93C
:10080000F04704468A462569BAF16F0F08BF0827EA
:1008100005D04AF02000782814BF0A2710273C266C
:10082000D4E90001BAF1640F18BFBAF1690F80462C
:10083000894607D10B4600218B4203DAD8F1000824
:1008400069EB49090020814508BF80451FD1206B15
:10085000E8B9082F47D194F83800010743D5302074
:100860003B2685F83B003EE000280ED594F8380082
:1008700000F01400102808D1626B6069121A206A17
:10088000121A561A002EC8BF2662BDE8F0874046ED
:1008900049463A46FB1700F04FFD3032761ED2B281
:1008A0003A2AA4BFAAF151008218AA5540464946E7
:1008B0003A46FB1700F040FD8046894600208145FE
:1008C00008BF804503D0E068A9198842DFD3082F0C
:1008D00009D194F83800010705D5A95D302902D067
:1008E000761E3020A855A819E060C6F13C01206BA7
:1008F000A1618142B8DA411A21624FF6EF70218F6F
:1009000001402187BDE8F0872DE9D04306460F4618
:1009100014464FF00008DFF8389412E0E00707D5DE
:1009200042464B463046394600F07EFD06460F46AD
:100930004046494642464B4600F076FD64108046EC
:100940008946002CEAD130463946BDE8D0832DE9EE
:10095000F04F0446884648F020008DB0D4E9009B53
:10096000612802AE0BD0206B002802D50620206340
:1009700005E001BF48F02000672801212163D4E988
:1009800000A568004015401C0DD129030BD0A8F12B
:10099000610103201A29A06102D20FF2D86110E090
:1009A0000FF2D4610DE068004015401C0ED1290300
:1009B0000CD1A8F1610103201A29A06116D30FF20E
:1009C000C061E068032200F063FCD1E125F0004142
:1009D000B1F5801F2AF0000211D20027B94208BFEA
:1009E000BA42019705D15046294613E00FF28C61B7
:1009F000E7E701AA5046294600F0E8FD0AE0DFF8E3
:100A0000542302EB1150DFF8501301900D40D349ED
:100A100050462943C4E9000148F02002612A0DD163
:100A2000E06830210170811CE160B8F1610F0CBFFA
:100A30007821582141706069801C6061D4E900A56B
:100A400025F0004300202AF00002834204BF8242C6
:100A5000002300F0548148F02000612840F09F807E
:100A6000206B00284CBF2120401C00904846009F6E
:100A70007F1C59460022002300F0E0FDAB460198A0
:100A80008DF8082038BF8BF0004BD146001F002F97
:100A900001900DF1090A40F3408140F2FF7548468C
:100AA00059460022002300F0E1FD80F036815A46CD
:100AB0005000400D00F11C010FD000290DDDA942AE
:100AC00005DBA7490BF000400143002012E06FF363
:100AD0001E5242EA015148460CE02BF0004129F039
:100AE0000000994208BF98420FBF59461C22594640
:100AF00000F0D4FD81468B4600F06EFEFF1F002FF4
:100B0000064609DD00F086FE02460B464846594679
:100B100000F092FE81468B460AF10700072104E0AF
:100B200006F00F0200F8012D3611002E01DD491EDE
:100B3000F6D5491E5CBF002200F8012DF9D5E7E08B
:100B40000020194602AA0A4400E05B1E12F801596F
:100B5000491E8542F9D00F2804D10DF10900425CED
:100B6000521C4254002904D50198001D02AE5B1CA2
:100B70000190581E0CD43118A8F13A050A78303289
:100B8000D2B2392AC8BFAA18401E01F80129F5D5EA
:100B9000206B002840F1B280591E2163AEE0484628
:100BA00059460022002300F049FD019938BF8BF01F
:100BB000004B47F2975041436A4A91FBF2F201928F
:100BC000D2F1070204DD48465946FFF79DFE0AE0D0
:100BD000524200206449FFF797FE02460B46484602
:100BE000594600F09BFE814648F020006628206BA5
:100BF0005E4D06BF019E0A3606263618142EC8BF63
:100C0000142630208B468DF808000DF10907002EC0
:100C100033DD4846594600F0A5FF01460A4607F174
:100C2000080304200A27B2FBF7F707EB870EA2EBB5
:100C30004E02303203F8012C0A22B7FBF2F202EB2B
:100C4000820EA7EB4E073037401E03F8027DE9D134
:100C5000083E002E03F10807D9DD084600F096FF94
:100C600002460B464846594600F0E6FD00222B4658
:100C700000F0DAFB81468B46CBE70DF10900381A0C
:100C80000DF1090604E00199491E401E0191761CF0
:100C900031783029F7D048F02002662A02D1019934
:100CA000491C05E048F0200165290CBF0121002105
:100CB000236BCB189842B8BF431E002B1ED483422F
:100CC00004DAF05C3528A8BF392000DA3020194654
:100CD000721E02EB010900E05B1E19F801B9491E02
:100CE0008345F9D0392802D1705C401C705400292A
:100CF00004D50198401C16465B1C0190019800B277
:100D000000901BB232464146204600F034F82FE0F6
:100D1000002F00F1070A3FF7C2AE0DF10900AAEB60
:100D2000000100980B468142C8BF0346002B0DF11D
:100D300009063FF52DAF8B42BFF602AF0DF109005A
:100D4000C05C07287FF7FCAE0F20FAE6CBCCCC0CBA
:100D50000000244002FCFFFFFFFF0F800000E03F87
:100D60000000F07FA08601000000F03F84D797418B
:100D70000DB0BDE8F08F2DE9F04786B005468946F5
:100D800092461F4600F0F2F9002F406A2E6B90F851
:100D9000008002DC01270FF2EC2ABDF9384049F04F
:100DA0002000662808BF641C12D0672877D114F190
:100DB000040F7ADBB44278DA95F83800641C010736
:100DC00002D4B742B8BF3E4624B2361B48BF002605
:100DD00024B2E868A969002C22DC4A1C3023435461
:100DE000002E03DC95F83800010703D5E86800F809
:100DF0000280521CE642B8BF744224B2A619604277
:100E0000BE42B8BF3746AA6168623FB2EF61E86888
:100E1000AB693A465146184400F03AFAF61B18E01E
:100E200022469742084416DA3A46514600F030FA14
:100E3000A9697918E01B002EA961686203DC95F8A6
:100E40003800020705D5E86800F80180E869401C11
:100E5000E861AE62A8E0514600F01AFAA8692018CD
:100E60003F1B002E03DC95F838100A0703D5E9680C
:100E700001F80080401CA8613FB2BE42B8BF3746AF
:100E8000E868AB693FB23A460AEB0401184400F047
:100E9000FFF9A8693818A861F61B6E6284E0B9F101
:100EA000610F14D14FF0700916E0B74204DA95F8DB
:100EB00038100A0758BF3E46761E48BF0026B9F1D3
:100EC000670F14BF4FF045094FF0650904E0B9F111
:100ED000410F08BF4FF05009A969EB68481CA86191
:100EE000002E1AF8012B5A5403DC95F838100A0723
:100EF00017D5E968431CAB6101F80080002E10DDB6
:100F00007F1E3FB2BE42B8BF3746E8683FB23A469E
:100F10005146184400F0BCF9A8693818A861F61BBE
:100F20006E62E868A9690844002C80F8009004D437
:100F30002B21417000F1020A04E02D21417000F1E3
:100F4000020A64424FF000086E4609E00A2203A834
:100F500000F029FE049806F8010B08F10108039C33
:100F600021B20029F2DCB8F1010F06DC49F02000C3
:100F7000652804BF30200AF8010BB8F1000F0AD130
:100F800030200AF8010B09E0A8F101081DF808005B
:100F900030300AF8010BB8F1000FF5DCE868A969F8
:100FA0000844AAEB0000E86195F8380000F014004E
:100FB00010280DD16969A8694118686A4118E86963
:100FC0004118A86A4118686B8142BCBF411A296266
:100FD00006B0BDE8F087F8B505460E4617461C4634
:100FE000002074B117F8011BB068A847B06030B199
:100FF000F06A401CF0620020641EF3D1F2BD4FF095
:10100000FF30F2BD7072696E74665F733A20256EB0
:1010100020646973616C6C6F776564007072696ECF
:1010200074663A2062616420256E20617267756D76
:10103000656E74007072696E74665F733A206261E7
:101040006420257320617267756D656E7400000001
:101050007072696E74665F733A2062616420256CF9
:101060007320617267756D656E740000000000008A
:10107000000000006E616E004E414E00696E660019
:10108000494E46003000F0B4034618689D681A18AF
:10109000586802EB5004C00721D54D441FE0F0BC56
:1010A00003F10C00704712F8017B05F8017B491E23
:1010B000F9D1A0B1B60812F8011B06F00306032E01
:1010C00008BF12F8016B01EB06214942801C29443C
:1010D00005D011F8016B05F8016B401EF9D1A24251
:1010E000DDD012F8016B16F0030104BF12F8011BEA
:1010F000C91C30090F28DAD112F8010B0F30D6E7DE
:101100001C48704730B45368D418042B09DA41B135
:10111000057804F8015B10F8015B15B15B1C491EF2
:10112000F3E7536030BC704738B514461D4661B1D3
:10113000FFF7E8FF61686A6B204690476FF0010295
:10114000811A02D0491E01D001E003E005E0002130
:10115000616032BD6FF0010032BD4FF0FF3032BD33
:10116000DA6B1047034BDFE7024BF9E702487047A1
:10117000000000003C000020040000200278C9B2FA
:101180008A421AB11CBF10F8012FF9E718BF0020DE
:101190007047B1F5807F02D34FF0FF307047017088
:1011A000012070470078401E8041C043C00F704747
:1011B00080B508B90FF21C0005490B681BB122224B
:1011C0000021984701E000F0F5FC222002BD00005C
:1011D000AC080020636F6E73747261696E7420686E
:1011E000616E646C65723A20626164206D65737330
:1011F0006167650000F10103810704D010F8011B4D
:1012000089B18107FAD10268B2F10131914311F03D
:10121000803F04BF50F8042FF6E710F8011B11B10E
:1012200010F8011BFBE7C01A70470000C9B2830722
:1012300006D0521E22D310F8013B9942F7D11FE08D
:10124000083A13D302F1040241EA012141EA0141C3
:1012500050F8043B121F21BF4B40A3F1013C2CEA84
:10126000030C1CF0803FF3D0C9B2001F083210F805
:10127000013B521E28BF91EA030FF8D818BF012086
:10128000401E704780B5FFF73BFF006C02BD0000B9
:1012900062B38B0708D0521E11F8013B00F8013BE6
:1012A00000F024808B07F6D1830740F0208000BF38
:1012B000103A07D330B4B1E83810103AA0E838102B
:1012C000F9D230BC530724BFB1E80810A0E80810D9
:1012D00044BF51F8043B40F8043BD20724BF31F827
:1012E000022B20F8022B44BF0B7803707047121FAB
:1012F00017D35B0009D151F8043B20F8023B1B0CCB
:10130000121F20F8023BF6D20BE051F8043B00F824
:10131000013B1B0A20F8023B1B0C121F00F8013B8B
:10132000F3D238BF121D521E24BF11F8013B00F842
:10133000013BF8D8704700001B4213D1094236D157
:101340002AB18446B0FBF2F002FB10C2704700F0F5
:1013500035BCFCD30022002370470B0002000021A3
:1013600000207047904271EB030CF6D370B5B1FAD0
:1013700081F4B3FA83F52C1BA340C4F1200532FAA3
:1013800005F63343A2405FF00046E64002E05B080A
:101390005FEA3202841A71EB030524BF2046294616
:1013A0007641F4D302000B003000002170BD012A09
:1013B000CFD970B5140C20D0B1FA81F4B2FA82F50D
:1013C000C4F120046419B4F12006D6D3B2405FF012
:1013D0000044F440002502E052085FEA3303C61AD5
:1013E00071EB020E24BF3046714664416D41F3D368
:1013F00002000B002000290070BD0C46B1FBF2F189
:1014000002FB11452D0445EA1045B5FBF2F402FB41
:10141000145580B240EA0545B5FBF2F002FB1052CC
:1014200040EA044070BD0000B0B581EA030C0CF046
:10143000004C40F2FF7515EA11541DBF15EA135711
:10144000AC42AF4239E0E41923EA455343F4801338
:10145000C90241F0004141EA505EC7021100A7FBFA
:10146000020200284FF00000EEFB01204FF00001C7
:10147000E3FB072118BF42F0010240180021494157
:10148000E3FB0E01A4F580640F0302D25200404139
:10149000494154F101046CDD470872F1004250F1FA
:1014A000000051EB0451A1F580115CBF41EA0C0131
:1014B000B0BD4CEA05510020B0BD05EA1357AC425F
:1014C00014BFAF4241E050EA410E1CBF52EA430E46
:1014D00002E061460020B0BD24423C441BD15FEADB
:1014E000070EF6D0090302BF01460020AEF1140E2C
:1014F000B1FA81F7AEEB070401FA07FE0C37C7F12A
:10150000200100FA07F7C8404EEA000E23EA4553CF
:1015100043F48013A2E733F00043B3FA83F704BF28
:10152000B2FA82FE77440B3FE41BB7F1200E2FBFC7
:1015300002FA0EF3BB40C7F1200E22FA0EFE38BFAE
:1015400043EA0E03BA40641C82E750EA410E14BF1E
:1015500052EA430E6FF000014FF4001717EB430FF0
:101560008ABF194617EB410FB5E74CEA0551002039
:10157000B0BDD4F10104B4F120070FDAC4F12007A3
:10158000520828BF42F0010210FA07F501FA07F7E6
:10159000E1BF2A43E0403843E1400FE0352C98DCBE
:1015A000C7F1200452EA400220FA07F218BF42F0C5
:1015B000010231FA07F0A1400A43002172F1004212
:1015C00050F1000051EB0C01B0BD000010B5144605
:1015D00000F002F8226010BDC1F30A5343B14A0083
:1015E00012F5001F28D2A3F2FE32A1EB0251704780
:1015F00050EA410C20D001F0004C31EA0C01B1FA64
:1016000081F204BFB0FA80F3D2180B3AB2F1200392
:101610002CBF00FA03F1914041EA0C013EBFC2F138
:10162000200C20FA0CF319439040524240F2FD3353
:10163000D21A01EB03517047002270474FF4001C8F
:101640001CEB410F94BF1CEB430F09E041EA030C74
:1016500050EA4C0C52EA0C0C03D2994208BF90425B
:10166000704714BF8B428242704700004FF4001C49
:101670001CEB410F94BF1CEB430F09E041EA030C44
:1016800050EA4C0C52EA0C0C03D28B4208BF824247
:10169000704714BF9942904270470000124254D4E0
:1016A00040F2FF7C1CEA11530FD0634531D09B18E8
:1016B00063453CBF01EB0251704701F0004141EA34
:1016C0000C510020AFF30080704750EA410320D056
:1016D00001F0004C91EA0C011CD0B1FA81F30B3BF4
:1016E0009A420DD9D21A994051EA0C01C3F1200C4B
:1016F00020FA0CFC61449840531C40F2FF7CD7E771
:10170000914041EA0C01C2F1200C20FA0CF319437C
:1017100090407047B0FA80F31533202BE0D3202A95
:10172000EED3203A203B9A4209D9D21A00FA03F1AB
:1017300041EA0C010020531C40F2FF7CB8E700FA9C
:1017400002F141EA0C0100207047524240F2FF7C56
:101750001CEA11530DD06345DBD0B2EB030C3CBF48
:10176000A1EB025170470CF1010221EA035141F44F
:10177000801150EA410CCCD001F0004C352A27DC16
:1017800030B481EA0C01B2F1200309DAC2F120037E
:10179000044601FA03F5D0402843D1409C400CE0B8
:1017A000C3F12002450020FA03F418BF44F00104FD
:1017B00021FA03F091400C43002174F1004550F1EF
:1017C000000051EB0C01244230BC7FF47BAF70472A
:1017D0006146002076E70000C1F30A5340F2FE3272
:1017E0009B1A14DDD3F120034FEAE17208DDC90230
:1017F00041EA505141F00040D840801850407047B5
:1018000003F2E13010B1D24382F000407047002073
:1018100070470000C11768B14840401AB0FA80F222
:101820009040D21CC907C2F5846241EA025202EB21
:10183000D02140057047000070B44FF0004591EA98
:10184000030F40F1BD816B40841A71EB030603D294
:10185000001BB141121973414FF4001C1CEB410FE6
:1018600034BF7CEB430442E00C0DA4EB1356352E41
:101870004FDC45EAC323DB0A45EAC121C912B6F1B0
:1018800020050DDD63FA05F6EB4086EA03051242FA
:1018900018BF45F00105C01851F100010CD213E04A
:1018A00062FA06F5F2405540F3415A40B340F34026
:1018B0005A408018594107D349085FEA30005FEA6F
:1018C000350528BF45F0010501F58011420875F185
:1018D000004250F1000041EB04514E0016F5001F8C
:1018E00070BC38BF70470020090D090570471CEB1C
:1018F000410F10D252EA43060BD0BCEB410F05D882
:101900000C0DAB43661E342EB6DD02E0AB438018EF
:10191000594170BC704770BC70470000F0B540F290
:10192000FF7581EA030C0CF0004C15EA11541DBF41
:1019300015EA1357AC42AF42E5E0BC41C1F31301D5
:10194000C3F31303801A994143F4801304D2641E35
:101950004000494180185941C90241EA5051B1FB48
:10196000F3F603FB1611A2FB0675D7EBC020A941C5
:1019700002D2761E80185941C90241EA5051B1FB8A
:10198000F3FE03FB1E11A2FB0E75D7EBC020A9418D
:1019900003D2AEF1010E80185941890241EA9051FB
:1019A000760546EA8E2EB1FBF3F603FB1611A2FB79
:1019B0000675D7EB8020A94102D2761E80185941C6
:1019C000C90241EA50514EEA060EB1FBF3F603FBA1
:1019D0001611A2FB0675D7EBC020A94102D2761ED4
:1019E00080185941C90241EA5051B1FBF3F703FB9A
:1019F0001711A2FB0735D3EBC020A94167F10007FF
:101A00000CBF004247F0010766F3D5274FEA1E31AD
:101A1000B80814F5806412DDBD0775F1004250EB83
:101A20000E5051EB045111F5801F5CBF41EA0C01CF
:101A3000F0BD4CF07F6141F0E0410020F0BDBD07FA
:101A40006D0840EA0E5041F48011D4F10104B4F164
:101A500020060ADAC4F120060200E04001FA06F38B
:101A6000E1401843B24015430EE0342C13DCC6F1BC
:101A7000200445EA40056D0820FA06F2154321FAD4
:101A800006F0A1400D43002175F1004250F1000025
:101A900051EB0C01F0BD00205FEA0C01F0BDCFB9A5
:101AA00092185B41B3FA83F704BFB2FA82F6BF190A
:101AB0000B3FB7F120062FBF02FA06F3BB40C7F178
:101AC000200622FA06F638BF3343BA401CB1E419A7
:101AD000641E33E77F4231F00041B1FA81F404BF64
:101AE000B0FA80F6A4190B3CB4F120062FBF00FA1F
:101AF00006F1A140C4F1200620FA06F638BF3143B2
:101B0000A0403C1B1AE7AC421ABF05EA1357AF428C
:101B100012E050EA41061CBF52EA4306BFE750EA12
:101B20004107304661461CBF41EA0551F0BD52EA0B
:101B3000430C08BFC143F0BD00204FF4001616EB64
:101B4000410F98BF16EB430F08BF16EB410F24BFA0
:101B5000C14305E016EB430F0CBF61464CEA05514B
:101B6000F0BD0000400D491840EA81200CD2490D1B
:101B7000A1F58061491C40F0004005DBD1F11F0157
:101B800054BFC840C017704700207047014648B195
:101B9000B0FA80F18840C91CC1F58461090501EBE8
:101BA000D0214005704791FBF2F303FB1211C0E90D
:101BB00000317047012000F0B7B800007047000006
:101BC000841A71EB030604D26E40001BB141121956
:101BD00073414FF4001C1CEB410F34BF7CEB4306F8
:101BE00082E00C0DA4EB1356362E7BDC012E45EA69
:101BF000C32341DC43EA525312BFD20292025B0874
:101C0000240545EAC12141EA5051D2EBC020994157
:101C100025D407D1B0FA80F610FA06F162D0002080
:101C2000203608E0B1FA81F6B140C6F1200220FA70
:101C300002F21143B0404FEAF474B4EB465434F06E
:101C400001064FEA74040AD8D6F50016760D04F0A2
:101C50000044F04061FA06F25040F1404840C00AAA
:101C600040EA415021F0004128BF5FEA500550F1A1
:101C7000000044EBD12135E0DB0A45EAC121C90A65
:101C8000B6F120050EDD42EA0242120CC5F1200633
:101C900003FA06F6EB4042EA06056D42984161F10F
:101CA00000010DE062FA06F5F240554063FA06FCC9
:101CB00082EA0C02F3405A406D42904161EB03010D
:101CC00011F4801F05D1641E620502D06D004041F1
:101CD000494121F48011430875F1004350F100009F
:101CE00041EB045170BC70471CEB410F15D223F03F
:101CF000004352EA43060BD04FEA4C0CBCEB410FB9
:101D000004D80C0D661E342EB7DDEBE7801A99411E
:101D100050EA410608BF0021E4E708BF1CEB430F6F
:101D200028BF6FF00001DDE780B5AFF30080024A05
:101D300011001820ABBEFBE7260002002DE9F041A0
:101D4000044682B02078DFF86854C10740F1D380A0
:101D5000686800F00C00042805D000F003FA0AD1EE
:101D60006868C10307D500F063F939D060680028BE
:101D700028D101204CE16068B0F5803F0FD038B920
:101D8000296821F480312960286820F4802009E046
:101D9000B0F5A02F296807D141F480212960286877
:101DA00040F48030286006E021F4803129602A6800
:101DB00022F480222A60606868B100F017FA0746B2
:101DC00000F036F940F0978000F010FAC01B65284B
:101DD000F6D303201CE100F009FA074600F028F9C9
:101DE00000F0898000F002FAC01B6528F6D3F0E706
:101DF00000F0FCF9C01B022840F2AA80E9E7206944
:101E000070B10121316000F0F1F9074600F00BF9E3
:101E100040F0C58000F0EAF9C01B0228F6D9D8E7E7
:101E2000306000F0E3F9074600F0FDF800F0828032
:101E300000F0DCF9C01B0228F6D9CAE7086000F000
:101E4000D5F9074600F089F900F0888000F0CEF956
:101E5000C01B0228F6D9BCE708B9286A09E00528A2
:101E6000286A06D140F004002862286A40F0010088
:101E700005E0400840002862286A20F0040028623B
:101E800041F28938E06868B100F0B0F90746286A85
:101E900000F064F940F0908000F0A8F9C01B4045C4
:101EA000F5D396E700F0A2F90746286A00F056F944
:101EB00000F0828000F09AF9C01B4045F5D388E716
:101EC00000F094F9C01B022840F2838081E700F003
:101ED0008DF9C01B022840F296807AE700F09AF84C
:101EE000074600F09BF800F0928000F07FF9C01BDD
:101EF0000228F6D96DE72078DFF8C062810719D58E
:101F0000686810F00C0F07D000F02CF97FF477AF61
:101F10006868C1033FF573AF00F085F81CBF206906
:101F200001287FF426AF2968606921F0F80141EAB1
:101F3000C00129602178080710D5A069DFF8801258
:101F400000283FF47BAF01220A6000F04FF90746FA
:101F500000F003F93FF44CAF00F04EF92078410750
:101F60002AD5E869DFF85C8240F08050E861E869D2
:101F700000F0805000900098D8F8001041F4807173
:101F8000C8F8001000F032F90746D8F80000C10583
:101F90000DD400F02BF9C01B6528F6D319E728688B
:101FA000616920F0F80040EAC1002860C2E7E068FB
:101FB00001287FF451AF58E7E06940B3696801F048
:101FC0000C0108293FF4D5AE022887D100F022F891
:101FD000074600F023F87FF473AF206AB0F5803F26
:101FE00005D16968A06821F400310143696069681E
:101FF000206A21F474110143606A01436960012081
:1020000000F009F8074600F009F83FF460AF00203F
:10201000BDE8F6810020306600F0E8B82868C0F31B
:102020004060002870472868C0F3400000287047CF
:102030002868C0F34040002870472DE9F843624FFC
:1020400006463868884600F00700404502D200F096
:102050007AF86CD13178564D880705D56968B06833
:1020600021F0F001014369603078C10757D57168EC
:10207000012903D12868C0F3404004E00229286800
:1020800003D1C0F3406018B951E000F067F84ED0BA
:102090006868800841EA8001696041F2893900F08E
:1020A000A5F80446706801280BD1686800F00C00A0
:1020B000042834D000F09AF8001B4845F5D30320DB
:1020C0002BE0022835D100F04DF828D000F08EF832
:1020D000001B4845F7D3F2E73078410705D569681A
:1020E000F06821F4E061014369603078010706D5AA
:1020F0006868316920F4605040EAC100686000F00F
:1021000036F86A683149C2F30312895C294AC8402B
:102110001060002000F07CF80020BDE8F2833868F1
:1021200000F007008045D7D200F00DF8D4D0012090
:10213000F3E7686810F00C0FF1D000F057F8001BBF
:102140004845F6D3BBE73968C90848EAC101396098
:10215000386800F0070040457047686AC0F34000E7
:1021600000287047686800F00C000828704718497C
:102170000A6802F00C00082814D10FF25C03C2F3C5
:102180008340D203185C0AD509680FF25C030A4A3F
:10219000C1F34041595CB2FBF1F1484370470D492E
:1021A0004843704704487047024800687047000081
:1021B000001002400000002000127A00000042429D
:1021C000800442420070004000200240842D00083C
:1021D0000410024000093D00020304050607080937
:1021E0000A0B0C0D0E0F10100102000001480068D0
:1021F000704700BFA808002011B581B0FFF7F6FFB7
:102200000446FFF7F3FF0199001B8842F9D313BD81
:1022100010B50446FFF7C8FF4FF47A71B0FBF1F038
:1022200000F03FF8002221464FF0FF3000F01CF88C
:10223000002010BD0901002806D52A4A00F00F0031
:10224000104400F8041C7047274A11547047274A6D
:1022500013684FF6FF0100020B4000F4E0601843E2
:10226000234908431060704738B5204B1C68C4F3FD
:102270000223C3F10704052C28BF04241D1D072DCC
:1022800034BF0023DB1E012505FA04F4641E21403F
:10229000994005FA03F35B1E1A401143BDE8344030
:1022A000C8E710B5401EB0F1807F01D3012010BDFA
:1022B000104C60600F214FF0FF30FFF7BBFF002292
:1022C000A26007202060002010BD0428094904D125
:1022D000086840F00400086070470A6822F00402B1
:1022E0000A60704718ED00E000E400E00CED00E04B
:1022F0000000FA0510E000E000F000B870470000B0
:102300002DE9F847024600208646664BDFF89881A3
:10231000DFF898914FF00F0A01240F6804FA0EF6C7
:102320003740B74240F0AD804C683CB3012C1AD026
:10233000022C1DD0032C2CD0112C16D0122C1AD00C
:102340005B4DAC421CBF5B4DAC4217D05A4DAC420A
:102350001CBF5A4DAC4211D0594DAC421CBF594D17
:10236000AC420BD016E0C86814E0C868001D11E04C
:10237000C86808300EE0C8680C300BE0886808B9FF
:10238000042007E0012819BF0820566108201661C3
:1023900000E00020B7F5807F03D294464FEA8E0418
:1023A00004E0AEF1080402F1040CA400DCF80050D3
:1023B0000AFA04F6B54300FA04F42C43CCF80040C2
:1023C0004C68E4005DD5D9F8004044F00104C9F838
:1023D00000404FEA8E06D9F8005005F0010500953F
:1023E0004FEA9E05009C58F8254006F00C0C0AFAAE
:1023F0000CF6B443344EB24208BF002618D0334E18
:10240000B24208BF012613D0314EB24208BF0226A5
:102410000ED0304EB24208BF032609D02E4EB24233
:1024200008BF042604D02D4EB2420CBF0526062656
:1024300006FA0CF6344348F82540FE434C68E503A1
:1024400003D51D683D431D6002E01C6834401C60DC
:102450004C68A5035C684CBF3C4334405C604C68EE
:10246000E5029C684CBF3C4334409C604C68A5022C
:1024700003D5DC682743DF6003E0DF6806EA070472
:10248000DC600EF1010EBEF10F0F7FF645AFBDE827
:10249000F18702B9090401617047C2685140C16007
:1024A000704700000004014008000140181002407D
:1024B0000000111000001210000021100000221076
:1024C000000031100000321000080140000C0140F3
:1024D000001001400014014000180140001C0140A0
:1024E000F8B5054605F10F04E408AFF30080E400F9
:1024F000A54242D2082C04D2082402E0083000F0A1
:1025000040F8DFF8FC603568290005D1002007E0BD
:102510000268A24223D2011D08680028F8D1286869
:10252000311D0A68824224D01368A34238BF111DAE
:10253000F7D314E03A190A60001B7B6853600A68FD
:1025400010603C60096800291DBF48680028081D0C
:1025500000203060AFF3008007F10800F2BD61B1E8
:102560000F683868A0F10802A242E3D278680860D8
:10257000E8E700F047F80028C0D1AFF30080002062
:10258000F2BD00B9704738B5A0F1080420680728EB
:102590002AD910F0070F27D1AFF30080184A5168ED
:1025A00009B18C4202D2616054600EE04868E0B12B
:1025B000A04238BF0146F9D317E0486818B1236834
:1025C000234498420ED360604C60606850B1236829
:1025D000E118814206D1002111600168CB18236007
:1025E00040686060AFF3008031BD0D6848198442D7
:1025F000F8D3A042E1D1206845190D600C46E4E70C
:10260000A00800200749086808B100207047064864
:10261000C008C00008600549C908C900091A01605E
:10262000704700BFB0080020870500208007002009
:1026300030B585B000F076F800F03AF81A481B4C37
:10264000016841F02001016016A5026802F0200235
:10265000009200220099016841F0100101604FF4DE
:102660008451006800F01000009000982046FFF7A9
:1026700010FF4FF484500190012102200291049038
:1026800001A92046FFF73CFE4FF484512046FFF796
:1026900004FF4FF4FA70FFF7AFFD284600F054F83E
:1026A000F2E700004F4B0A001810024000100140F2
:1026B00000B500218FB001200791059002210C91F7
:1026C0004FF48030069001220D904FF4E0110992F2
:1026D0000E9105A8FFF732FB00B1FEE70F210220A3
:1026E0000091019000214FF48060029103900491C9
:1026F00068460221FFF7A1FC00B1FEE7FFF754FD99
:102700004FF47A71B0FBF1F0FFF7CBFD0420FFF737
:10271000DCFD002200214FF0FF30FFF7A5FD0FB0D8
:1027200000BD000080B50748016841F0100101605C
:102730000320FFF78CFD0020FFF76AFD00F018F87A
:10274000002002BD002002400EB4C0B5024603A81E
:1027500000210190009101AB0121044878440C3024
:10276000FDF7E6FC06BC5DF810FB00BFA707000004
:1027700080B51C48016841F001010160006800F06B
:102780000100009000980320FFF761FD0022002166
:102790006FF00B00FFF768FD002200216FF00A00C8
:1027A000FFF762FD002200216FF00900FFF75CFDDA
:1027B000002200216FF00400FFF756FD00220021E7
:1027C0006FF00300FFF750FD002200216FF00100C1
:1027D000FFF74AFDBDE80840002200214FF0FF301E
:1027E000FFF742BD181002402DE9F0410746884628
:1027F000387810F0030F16461D4633D0384600F0E7
:1028000099F878BBB8F1000F1CBFD8E90001861910
:10281000012D2ED13888C10415D5396A07F144023B
:10282000384600F0A3F83A6B044602B93A69F968F1
:10283000384600F09BF8361B341A7A69F968384636
:1028400000F094F8261A1EB94DB916F1010F09D0FF
:1028500097F903002A46314600F08EF8064616F135
:10286000010F09D12320AFF300804FF0FF30BDE806
:10287000F081022DE8D1EBE7388810F4405F0ED0EC
:102880007868F86038617861B8617868F86107F154
:102890004400386207F13000786200203863B8F1F4
:1028A000000F05D0D8E9020107F13402C2E90001A6
:1028B00039884CF6FF60014039800020BDE8F08186
:1028C00070B50446AFF300802088810415D5666892
:1028D0000025E26894F903003146914212D2521A5F
:1028E00000F070F810F1010F1CBF00283618F0D16D
:1028F0000FE04DF6FF70014021802046AFF30080CD
:10290000002070BD0022002100F05CF810F1010FE2
:1029100000D101256068E060A061E061002D2188A0
:10292000E7D041F4007121802046AFF300804FF0E2
:10293000FF3070BDF8B5A0B9AFF3008000250A4E96
:1029400008244FF0FF37306820B1FFF7B9FF0028A7
:1029500048BF3D46361D641EF5D1AFF300802846C2
:10296000F2BDBDE8F240ABE75C010020914234BF0C
:10297000511A00210846704730B583B004000D009D
:10298000012A02D100F06AF807E0022A07D1009478
:102990000020019069460C20ABBE2D1801E0002AF2
:1029A0000CD10094019569460A20ABBE002805D1E0
:1029B00000222100280000F02EF801E00020C04392
:1029C00003B030BD80B5002802D400F069F802BD24
:1029D000002002BD10B4314A002113461C68844215
:1029E0001EBF491C9C6884421EBF491C1C6984424E
:1029F00009D09C69491C844205D0491C2033102908
:102A0000ECD310BC7047002342F8313002EBC10117
:102A10004B6010BC704770B4204C002325462E68D4
:102A20008E421EBF5B1CAE688E421EBF5B1C2E69B1
:102A30008E4209D0AE695B1C8E4205D05B1C2035EE
:102A4000102BECD370BC7047054604EBC303012A7E
:102A500004BF59684D195D6070BC704710B40F4ACF
:102A6000002113461C6884421EBF491C9C68844296
:102A70001EBF491C1C6984420AD09C69491C8442BF
:102A800006D0491C20331029ECD310BC002070471D
:102A900002EBC100406810BC7047000080070020B6
:102AA00080B5002901D1002002BD012801D00228F3
:102AB00002D100F005F802BD00F02AF802BD0000C6
:102AC00070B40B00002111480068C0010FD4080049
:102AD00070BC70475D782D0225439C7826042E43F8
:102AE000DC78240634431B1D0460121F091D002AD4
:102AF000EDD0E02000060468002CFAD01C78042AEF
:102B0000E8D204705B1C491C521EF0E7FCED00E0AB
:102B100010B584B00300140000930191029469463B
:102B20000520ABBE01221900201AFFF774FF04B084
:102B300010BD10B50446E068A169884251D32188D0
:102B400049F202020A40022A08D008044CBF4FF49E
:102B500000704FF48440014321803BE001F4C04108
:102B6000B1F5C04F06D1A168884203D32046FFF7D4
:102B7000E1FE78BB208810F4406F02BF606804F16A
:102B80004401884217D14FF40070FFF7A9FC606040
:102B900030B904F144006060E060401CA0600AE0CD
:102BA000218841F040012180E060606100F5007201
:102BB0006068A260E06160682061A068A061207820
:102BC00041070AD502220021204600F00CF810F13E
:102BD000010F02D14FF0FF3010BD208840F4C040FB
:102BE0002080002010BD70B504460D461646AFF398
:102BF000008033462A4600212046FFF7F5FD0546B2
:102C00002046AFF30080284670BD38B504000ED0D2
:102C1000207810F0030F03D094F90300002809D5A1
:102C2000AFF30080204600F02FF8AFF300804FF0A4
:102C3000FF3032BD2046FFF77DFE0546AFF3008032
:102C40002078410644BF606800F05CF800206060B6
:102C500094F90300022804D900F056F808B14FF0A7
:102C6000FF35E06B48B100F05CF808B14FF0FF357C
:102C7000E06B00F047F80020E063204600F004F825
:102C8000AFF30080284632BD01780A0626D51C4ADB
:102C900013680021834203D1002342F821301BE056
:102CA0005368012183421EBF022193688342F3D0FF
:102CB000D368032183421EBF042113698342EBD0F2
:102CC0005369052183421EBF0621936983421EBFBB
:102CD0000721D3698342DFD000F014B800210180BE
:102CE0004FF0FF31C17000F144014160C1600161EA
:102CF00041618161C161016200F13001416270474F
:102D00005C010020FFF73DBC10B582B002000092CC
:102D100069460220ABBE04001000FFF75BFE2000F6
:102D200016BD00B583B00090FEF764FA01906946C5
:102D30000E20ABBE03B000BD0E49086840F0010094
:102D400008604A680C4802404A600B680B48034020
:102D50000B60086820F4802008604FF41F004A6868
:102D600022F4FE024A6088604FF000600449086067
:102D700070470000001002400000FFF8FFFFF6FE61
:102D800008ED00E000000000000000000102030464
:102D90000607080938B505460C462046AFF3008003
:102DA000E068A169884204D32046FFF7C2FE0028EC
:102DB00010D4E068401CE06000F8015D2088010547
:102DC00004D440050CD5EDB20A2D09D12046FFF7F9
:102DD000B1FD28B12046AFF300804FF0FF3032BD87
:102DE0002046AFF30080E8B232BD19E050F8042B62
:102DF000D30744BFA9F101039A18091F002304292E
:102E000042F8043BF9D25FEA817C134604D54FF0C7
:102E1000000CA2F800C09B1CC90744BF0021197018
:102E200050F8041B0029E1D17047000038B50D4D62
:102E30000824286800281CBF017811F0030F05D072
:102E400090F90310002958BFFFF7DFFE2D1D641E07
:102E5000EFD1BDE83840002200214FF0FF30FFF7EE
:102E6000B1BD00BF5C01002010B50749794418319D
:102E7000064C7C44163404E00A68081D1144884757
:102E80000146A142F8D110BD080000002400000056
:102E90005BFFFFFF340100008007002000000000FE
:102EA000E7E1FFFFA4010000040100000000002092
:102EB0007047FEE7FEE7FEE7FEE7704770477047A2
:102EC00080B500F005F8BDE80140FFF715BA000035
:102ED00002480168491C0160704700BFA808002033
:102EE00000F00BF8002801D0FFF7BEFF0020AFF381
:102EF0000080FFF79DFB00F002F80120704700F012
:102F000001B800000746FFF791FF3846FEF70CFFB7
:102F1000FBE738B504460D46284600F005F8A84200
:102F200018BF0024204632BD0149FFF733BF00BF60
:102F3000CC0000200148804701480047392D000897
:102F4000452F0008AFF30080AFF30080FFF7C8FF04
:102F500000002E004300FFF7FEBFFFF7FEBFFFF7A4
:102F6000FEBFFFF7FEBFFFF7FEBFFFF7FEBFFFF795
:102F7000FEBFFFF7FEBFFFF7FEBFFFF7FEBFFFF785
:102F8000FEBFFFF7FEBFFFF7FEBFFFF7FEBFFFF775
:102F9000FEBFFFF7FEBFFFF7FEBFFFF7FEBFFFF765
:102FA000FEBFFFF7FEBFFFF7FEBFFFF7FEBFFFF755
:102FB000FEBFFFF7FEBFFFF7FEBFFFF7FEBFFFF745
:102FC000FEBFFFF7FEBFFFF7FEBFFFF7FEBFFFF735
:102FD000FEBFFFF7FEBFFFF7FEBFFFF7FEBFFFF725
:102FE000FEBFFFF7FEBFFFF7FEBFFFF7FEBFFFF715
:102FF000FEBFFFF7FEBFFFF7FEBFFFF7FEBFFFF705
:10300000FEBFFFF7FEBFFFF7FEBFFFF7FEBFFFF7F4
:10301000FEBFFFF7FEBFFFF7FEBFFFF7FEBFFFF7E4
:10302000FEBFFFF7FEBFFFF7FEBFFFF7FEBFFFF7D4
:10303000FEBFFFF7FEBFFFF7FEBFFFF7FEBFFFF7C4
:10304000FEBFFFF7FEBF0000F0060700A24A0450D3
:103050002F00080452FF01F2005214100100005426
:103060000CF00716010000000400002000012002FF
:10307000A51100082C4393113C210112014112C8F3
:103080004412C90452C804211BA108F212B46410EE
:10309000070204010150080020A00452500421340A
:1030A0006108F0031310010020FC486002080202CE
:1030B0000040610421015108125848F311440148AD
:0A30C00012846C12CC04F206142CEA
:0400000508002F457B
:00000001FF
