:020000040800F2
:10000000300400209D110008A5110008A711000868
:10001000A9110008AB110008AD1100080000000094
:10002000000000000000000000000000AF11000808
:10003000B111000800000000B3110008B51100085C
:10004000B7110008B7110008B7110008B711000870
:10005000B7110008B7110008B7110008B711000860
:10006000B7110008B7110008B7110008B711000850
:10007000B7110008B7110008B7110008B711000840
:10008000B7110008B7110008B7110008B711000830
:10009000B7110008B7110008B7110008B711000820
:1000A000B7110008B7110008B7110008B711000810
:1000B000B7110008B7110008B7110008B711000800
:1000C000B7110008B7110008B7110008B7110008F0
:1000D000B7110008B7110008B7110008B7110008E0
:1000E000B7110008B7110008B7110008DFF80CD0ED
:1000F00001F0D8F800480047C11100083004002082
:100100000CB50020019000906C48006840F48030ED
:100110006A49086000BF6948006800F40030009038
:100120000198401C0190009818B90198B0F5A06F93
:10013000F1D16248006800F4003010B10120009055
:1001400001E0002000900098012843D15C4800683D
:1001500040F010005A4908600846006820F003008B
:1001600008600846006840F0020008605348406894
:10017000524948600846406848600846406840F474
:10018000806048600846406820F47C10486008465B
:10019000406840F4E81048600846006840F080700D
:1001A000086000BF4548006800F000700028F9D0E2
:1001B0004248406820F003004049486008464068D3
:1001C00040F00200486000BF3C48406800F00C006E
:1001D0000828F9D10CBD10B5FFF792FF10BD10B57E
:1001E0003648006840F0010034490860084640681D
:1001F000344908403149486008460068324908409F
:100200002E4908600846006820F4802008600846EF
:10021000406820F4FE0048604FF41F008860FFF73C
:10022000DAFF4FF000602949086010BD10B50021C9
:1002300000200022214B5B6803F00C0121B104294E
:1002400006D0082928D107E0214B224C236027E063
:100250001F4B204C236023E0184B5B6803F47010A5
:10026000164B5B6803F48032022303EB904022B903
:10027000194B4343174C23600DE0104B5B6803F4AC
:10028000003323B1144B4343124C236003E0104B63
:100290004343104C236003E00D4B0E4C236000BF22
:1002A00000BF064B5B68C3F303130C4CE15C094BC6
:1002B0001B68CB40074C236010BD000000100240BB
:1002C000002002400000FFF8FFFFF6FE08ED00E00E
:1002D00000127A000000002000093D000400002008
:1002E00070B592B004460D4616460121084600F04E
:1002F000E4FE3D48844204D101214FF4047000F033
:10030000E9FE3A48844204D101214FF4017000F023
:10031000E1FEADF8445000208DF8470011A92046B9
:1003200000F01CFC324800F08FFA32480690079625
:10033000002008900120099000200A900B904FF4B3
:1003400080700C9080000D9020200E9000020F9085
:100350000020109006A9264800F018FB012124482F
:1003600000F03FFB0020019001208DF808008DF87F
:1003700009004FF4602003900020049001208DF8C4
:10038000140001A91B484C3800F05DF80523012238
:100390000F2118484C3800F0EEF8012115484C3870
:1003A00000F088F8012113484C3800F078F8114823
:1003B0004C3800F096F800BF0E484C3800F096F824
:1003C0000028F9D10B484C3800F09AF800BF0948D2
:1003D0004C3800F09AF80028F9D1012105484C3832
:1003E00000F09DF812B070BD0010014000080140FF
:1003F000080002404C24014010B50446FA488442EB
:1004000008D10121401500F07FFE0021601500F0A9
:100410007BFE17E0F548844208D10121001500F069
:1004200073FE0021201500F06FFE0BE0F0488442BF
:1004300008D10121C80300F067FE00214FF40040FD
:1004400000F062FE10BD30B5024600200023506867
:10045000E84C20400D790C6844EA052420435060A4
:100460009068E54C2040D1E902542C434D7944EA90
:10047000450420439060D06A20F470000C7C641E18
:10048000E4B2234340EA0350D06230BD0021016052
:10049000017141718160C16001210174704721B116
:1004A000826842F00102826003E0826822F0010269
:1004B0008260704721B1826842F48072826003E0FA
:1004C000826822F480728260704710B50023CBB23C
:1004D0001AB144681C43446002E044689C43446091
:1004E00010BD816841F0080181607047014600201D
:1004F0008A6802F008020AB1012000E0002070477B
:10050000816841F0040181607047014600208A68DB
:1005100002F004020AB1012000E00020704721B17E
:10052000826842F4A002826003E0826822F4A002A2
:1005300082607047014600208A6802F480020AB196
:10054000012000E00020704710B50A46002100237A
:10055000416821F46041531E41EA4331416010BDBE
:1005600021B1426842F40062426003E0426822F432
:10057000006242607047F0B504460D46002000213D
:10058000092D11DDE068A5F10A0606EB46070726EE
:1005900006FA07F18843A5F10A0606EB460603FAB8
:1005A00006F10843E0600CE0206905EB45070726EB
:1005B00006FA07F1884305EB450603FA06F10843FE
:1005C0002061072A0FDA606B561E06EB86071F268E
:1005D00006FA07F18843561E06EB860605FA06F171
:1005E0000843606322E00D2A0FDA206BD61F06EB6A
:1005F00086071F2606FA07F18843D61F06EB8606F4
:1006000005FA06F10843206310E0E06AA2F10D0646
:1006100006EB86071F2606FA07F18843A2F10D06AE
:1006200006EB860605FA06F10843E062F0BD21B14B
:10063000826842F48012826003E0826822F48012B1
:10064000826070470146C86C80B2704766484C3083
:100650000068704721B1426842F48062426003E062
:10066000426822F480624260704721B1426842F4DD
:100670008052426003E0426822F480524260704738
:100680000A460021816821F4E041114381607047EE
:1006900021B1826842F40042826003E0826822F461
:1006A00000428260704721B1826842F40212826087
:1006B00003E0826822F40212826070470146002043
:1006C0008A6802F400120AB1012000E0002070479D
:1006D000F0B504461546002000220026092911DD48
:1006E000E068A1F10A0707EB470C072707FA0CF2AD
:1006F0009043A1F10A0707EB470703FA07F21043FB
:10070000E0600CE0206901EB410C072707FA0CF2CE
:10071000904301EB410703FA07F210432061A06BFD
:10072000C0F30156EF1C06F1010CA7EB0C0707EB19
:10073000870C1F2707FA0CF29043EF1C06F1010CFF
:10074000A7EB0C0707EB870701FA07F21043A0633A
:10075000F0BD10B50A4600210023816B21F4401141
:10076000531E41EA0351816310BD08B50023009375
:100770000090009B0B440093009B1A6008BD08B5D5
:10078000024600200090009201F12800009B1844CE
:1007900000900098006880B208BD0A4600214168B8
:1007A000164B1940114341607047416282627047A5
:1007B0000A460021416821F01F0111434160704742
:1007C00040B109490831096841F40001064A08327C
:1007D000116007E004490831096821F40001024A68
:1007E00008321160704700000024014000280140D9
:1007F000003C0140FFFEF0FFFDF7F1FFFFFD3FFF72
:100800000246002013680B400BB1012000E00020DD
:100810007047CA430260704770B50246002000234B
:1008200000240B125568CEB205EA060415681D4077
:1008300015B10CB1012000E0002070BD00220A12A9
:10084000D34303607047000001684FF6FE72114009
:1008500001600021016041608160C1608D49884272
:1008600008D18C490839496841F00F01894A083A92
:1008700051608AE087491431884208D18549083996
:10088000496841F0F001834A083A51607DE08149AE
:100890002831884208D17F490839496841F470619C
:1008A0007C4A083A516070E07A493C31884208D16C
:1008B00078490839496841F47041764A083A5160EC
:1008C00063E074495031884208D172490839496857
:1008D00041F470216F4A083A516056E06D49643125
:1008E000884208D16B490839496841F47001694A66
:1008F000083A516049E067497831884208D1654932
:100900000839496841F07061624A083A51603CE038
:100910006149884206D1011F096841F00F01021F99
:10092000116032E05C491431884208D15A49091FEC
:10093000096841F0F001584A121F116025E056493C
:100940002831884208D15449091F096841F470616F
:10095000514A121F116018E04F493C31884208D1BA
:100960004D49091F096841F470414B4A121F11603B
:100970000BE049495031884207D14749091F0968AE
:1009800041F47021444A121F1160704710B50022D3
:10099000026847F6F0739A430C6A8B6823430C692C
:1009A00023434C6923438C692343CC6923434C6A1A
:1009B00023438C6A23431A430260CB6843600B686D
:1009C00083604B68C36010BD00210160416081609D
:1009D000C160016141618161C16101624162816205
:1009E000704721B1026842F00102026004E002682F
:1009F0004FF6FE731A40026070471AB103680B434A
:100A0000036002E003688B430360704741607047F6
:100A10000146486880B2704701460020002201F07C
:100A200080531BB11C4B083B1A6802E0194B083B72
:100A30001A6802EA01030BB1012000E000207047B0
:100A400000F0805119B11449091F086002E01149F2
:100A500008394860704701460020002201F08053A9
:100A60001BB10D4B083B1A6802E00A4B083B1A68A1
:100A700002EA01030BB1012000E00020704700F002
:100A8000805119B10449091F086002E00149083981
:100A900048607047080002400804024010B5044650
:100AA000CC48844208D10121042000F02DFB002114
:100AB000042000F029FB46E0C748844208D1012108
:100AC000082000F021FB0021082000F01DFB3AE087
:100AD000C248844208D10121102000F015FB0021FA
:100AE000102000F011FB2EE0BD48844208D1012106
:100AF000202000F009FB0021202000F005FB22E06F
:100B0000B848844208D10121402000F0FDFA0021BC
:100B1000402000F0F9FA16E0B348844208D10121E0
:100B2000802000F0F1FA0021802000F0EDFA0AE0C8
:100B3000AE48844207D10121801500F0E5FA00217A
:100B4000A01500F0E1FA10BD10B50121084600F033
:100B5000DBFA0021012000F0D7FA10BD2DE9F041A9
:100B6000024600250026002000230024002791F8DB
:100B700003C00CF00F0591F803C00CF0100CBCF191
:100B8000000F03D091F802C04CEA050591F800C0AF
:100B9000BCF1000F31D0146800202BE04FF0010CA5
:100BA0000CFA00F3B1F800C00CEA03069E4220D113
:100BB00083004FF00F0C0CFA03F7BC4305FA03FC5B
:100BC0004CEA040491F803C0BCF1280F06D14FF0A1
:100BD000010C0CFA00FCC2F814C00AE091F803C042
:100BE000BCF1480F05D14FF0010C0CFA00FCC2F823
:100BF00010C0401C0828D1D31460B1F800C0BCF16B
:100C0000FF0F34DD546800202EE000F1080C4FF097
:100C1000010808FA0CF3B1F800C00CEA03069E4282
:100C200021D183004FF00F0C0CFA03F7BC4305FAF7
:100C300003FC4CEA040491F803C0BCF1280F05D171
:100C400000F1080C08FA0CF8C2F8148091F803C0FF
:100C5000BCF1480F07D100F1080C4FF0010808FA69
:100C60000CF8C2F81080401C0828CED35460BDE8B0
:100C7000F0814FF6FF710180022181700421C17063
:100C800070470246002093680B400BB1012000E042
:100C9000002070470146886880B2704702460020F5
:100CA000D3680B400BB1012000E0002070470146E3
:100CB000C86880B2704701617047416170470AB1EE
:100CC000016100E041617047C16070474FF48032BC
:100CD0000A4382618161826182698269704702464A
:100CE0000020434B18684FF68073184040EA02100A
:100CF00008433F4B186070473E49C8617047F0B5E4
:100D00000A46002300240021002500F00046B6F129
:100D1000004F02D1364EF16901E0354E7168C0F3E3
:100D2000034583B200F44016B6F5401F08D121F008
:100D300070612F4E766826F070662D4F7E6012E04F
:100D400000F48016B6F5801F06D1032606FA05F4D6
:100D5000A14341F0706106E0460D360103FA06F644
:100D6000B14341F0706122B1460D360103FA06F637
:100D7000314300F00046B6F1004F02D11C4EF16144
:100D800001E01B4E7160F0BD30B500228B071C0FD7
:100D90000F2303FA04F2164B08338C1053F8243057
:100DA0009343134C08348D1044F8253023468C109F
:100DB00053F824308C07240F00FA04F423430C4C1E
:100DC00008348D1044F8253030BD0A49DC31086004
:100DD0007047000000080140000C01400010014075
:100DE0000014014000180140001C01400020014097
:100DF0000000014000002042DF48006840F0010090
:100E0000DD49086008464068DC490840DA49486026
:100E100008460068DA490840D74908600846006873
:100E200020F4802008600846406820F4FE004860F6
:100E30004FF41F0088607047CF49096821F4803162
:100E4000CD4A11601146096821F480211160B0F586
:100E5000803F03D0B0F5802F0ED106E0C649096867
:100E600041F48031C44A116007E0C349096841F484
:100E7000A021C14A116000E000BF00BF704710B55B
:100E800001460022002300204A11012A02D1BA4C57
:100E9000236806E0022A02D1B74C236A01E0B64C6F
:100EA000636A01F01F02012494401C400CB1012030
:100EB00000E0002010BD38B500200090002400257F
:100EC00000BF3120FFF7DBFF05460098401C009073
:100ED0000098B0F5A06F01D0002DF2D03120FFF7BF
:100EE000CEFF08B1012400E00024204638BD0146B1
:100EF0000020A14A106820F0F80040EAC10010600C
:100F00007047A04908607047024600209A4B586815
:100F100020F47C1042EA01031843974B5860704755
:100F200098490866704701460020934A506820F0AF
:100F300003000843506070478F48406800F00C0081
:100F40007047014600208C4A506820F0F0000843AA
:100F50005060704701460020874A506820F4E060E6
:100F600008435060704701460020834A506820F4CF
:100F7000605040EAC1005060704729B17E4A527A01
:100F800002437D4B5A7204E07B4A527A82437A4B89
:100F90005A7270477B49D83108607047014600207B
:100FA000754A506820F44040084350607047002163
:100FB000714A20321170704A82F82010012802D044
:100FC00004280AD104E001216B4A2032117005E0A7
:100FD0000521694A2032117000E000BF00BF704750
:100FE0006949086070476449096A0143624A1162AD
:100FF0007047654944390860704730B500210022C8
:10100000002400235C4D6D6805F00C0121B104291A
:1010100005D0082923D105E05C4D056022E05B4D39
:1010200005601FE0544D6D6805F47012524D6D68F7
:1010300005F48034022505EB92421CB9544D55430A
:1010400005600BE04C4D6D6805F400351DB1504D49
:101050005543056002E04D4D5543056002E04B4DA0
:10106000056000BF00BF444D6D6805F0F00109093F
:10107000484D6B5C0568DD4045603F4D6D6805F48B
:10108000E061090A434D6B5C4568DD4085603A4D7F
:101090006D6805F46051C90A3E4D6B5C4568DD40E2
:1010A000C560354D6D6805F44041890B3A4D6B5C68
:1010B000C568B5FBF3F5056130BD29B12E4A52690B
:1010C00002432D4B5A6104E02B4A526982432A4B5A
:1010D0005A61704729B1284A92690243264B9A61A6
:1010E00004E0254A92698243234B9A61704729B1F3
:1010F000214AD2690243204BDA6104E01E4AD269D8
:1011000082431D4BDA61704729B11B4AD268024302
:10111000194BDA6004E0184AD2688243164BDA6051
:10112000704729B1144A12690243134B1A6104E053
:10113000114A12698243104B1A61704712494039B3
:10114000086070470F49C86470470B49C871704701
:101150000948406A40F0807007494862704701467C
:101160000020054A92680A400AB1012000E00020F0
:101170007047014988727047001002400000FFF874
:10118000FFFFF6FE000042428004424200127A0055
:1011900000093D001400002024000020064880477C
:1011A00006480047FEE7FEE7FEE7FEE7FEE7FEE74C
:1011B000FEE7FEE7FEE7FEE7DF010008ED000008BE
:1011C00001212020FFF786FF10203249C8704FF41C
:1011D00070600880032088702F48FFF7BFFC4FF431
:1011E00070612D48FFF769FD2C4A20212C48FFF73C
:1011F00077F84DE029480088642804DD4FF48071B9
:101200002548FFF758FD25480088B0F5FA7F04DD32
:101210004FF400712048FFF74EFD20480088B0F5DC
:10122000FA6F04DD4FF480611B48FFF744FD1B4853
:101230000088B0F57A6F04DD4FF400611648FFF7BF
:101240003AFD16480088642804DA4FF48071124889
:10125000FFF733FD11480088B0F5FA7F04DA4FF448
:1012600000710D48FFF729FD0C480088B0F5FA6FB2
:1012700004DA4FF480610848FFF71FFD0748008833
:10128000B0F57A6F04DA4FF400610348FFF715FDFB
:10129000B0E700002A0000200014014028000020D0
:1012A00000100140064C074D06E0E06840F00103E5
:1012B00094E8070098471034AC42F6D3FEF71AFFC3
:1012C000E81200080813000802E008C8121F08C14D
:1012D000002AFAD170477047002001E001C1121FB7
:1012E000002AFBD17047000008130008000000200E
:1012F00030000000C8120008381300083000002039
:1013000000040000D812000800A24A0400000000F7
:1013100000000000010203040607080900000000A5
:101320000102030401020304060708090204060877
:081330000000000000000000B5
:040000050800119D41
:00000001FF
